{
	"Smart Contracts/addFiveStorage.sol": {
		"AddFiveStorage": {
			"abi": [
				{
					"inputs": [
						{
							"internalType": "string",
							"name": "_name",
							"type": "string"
						},
						{
							"internalType": "uint256",
							"name": "_favoriteNumber",
							"type": "uint256"
						}
					],
					"name": "addPerson",
					"outputs": [],
					"stateMutability": "nonpayable",
					"type": "function"
				},
				{
					"inputs": [
						{
							"internalType": "uint256",
							"name": "",
							"type": "uint256"
						}
					],
					"name": "listOfPeople",
					"outputs": [
						{
							"internalType": "uint256",
							"name": "favoriteNumber",
							"type": "uint256"
						},
						{
							"internalType": "string",
							"name": "name",
							"type": "string"
						}
					],
					"stateMutability": "view",
					"type": "function"
				},
				{
					"inputs": [
						{
							"internalType": "string",
							"name": "",
							"type": "string"
						}
					],
					"name": "nameToFavoriteNumber",
					"outputs": [
						{
							"internalType": "uint256",
							"name": "",
							"type": "uint256"
						}
					],
					"stateMutability": "view",
					"type": "function"
				},
				{
					"inputs": [],
					"name": "retrieve",
					"outputs": [
						{
							"internalType": "uint256",
							"name": "",
							"type": "uint256"
						}
					],
					"stateMutability": "view",
					"type": "function"
				},
				{
					"inputs": [
						{
							"internalType": "uint256",
							"name": "_newNumber",
							"type": "uint256"
						}
					],
					"name": "store",
					"outputs": [],
					"stateMutability": "nonpayable",
					"type": "function"
				}
			],
			"devdoc": {
				"kind": "dev",
				"methods": {},
				"version": 1
			},
			"evm": {
				"assembly": "    /* \"Smart Contracts/addFiveStorage.sol\":117:331  contract AddFiveStorage is SimpleStorage {... */\n  mstore(0x40, 0x80)\n  callvalue\n  dup1\n  iszero\n  tag_1\n  jumpi\n  0x00\n  dup1\n  revert\ntag_1:\n  pop\n  dataSize(sub_0)\n  dup1\n  dataOffset(sub_0)\n  0x00\n  codecopy\n  0x00\n  return\nstop\n\nsub_0: assembly {\n        /* \"Smart Contracts/addFiveStorage.sol\":117:331  contract AddFiveStorage is SimpleStorage {... */\n      mstore(0x40, 0x80)\n      callvalue\n      dup1\n      iszero\n      tag_1\n      jumpi\n      0x00\n      dup1\n      revert\n    tag_1:\n      pop\n      jumpi(tag_2, lt(calldatasize, 0x04))\n      shr(0xe0, calldataload(0x00))\n      dup1\n      0x2e64cec1\n      eq\n      tag_3\n      jumpi\n      dup1\n      0x2ebce631\n      eq\n      tag_4\n      jumpi\n      dup1\n      0x6057361d\n      eq\n      tag_5\n      jumpi\n      dup1\n      0x6f760f41\n      eq\n      tag_6\n      jumpi\n      dup1\n      0x8bab8dd5\n      eq\n      tag_7\n      jumpi\n    tag_2:\n      0x00\n      dup1\n      revert\n        /* \"Smart Contracts/SimpleStorage.sol\":574:664  function retrieve() public view returns(uint256){... */\n    tag_3:\n        /* \"Smart Contracts/SimpleStorage.sol\":614:621  uint256 */\n      0x00\n        /* \"Smart Contracts/SimpleStorage.sol\":640:656  myFavoriteNumber */\n      sload\n        /* \"Smart Contracts/SimpleStorage.sol\":574:664  function retrieve() public view returns(uint256){... */\n    tag_8:\n      mload(0x40)\n        /* \"#utility.yul\":160:185   */\n      swap1\n      dup2\n      mstore\n        /* \"#utility.yul\":148:150   */\n      0x20\n        /* \"#utility.yul\":133:151   */\n      add\n        /* \"Smart Contracts/SimpleStorage.sol\":574:664  function retrieve() public view returns(uint256){... */\n    tag_10:\n      mload(0x40)\n      dup1\n      swap2\n      sub\n      swap1\n      return\n        /* \"Smart Contracts/SimpleStorage.sol\":330:358  Person[] public listOfPeople */\n    tag_4:\n      tag_12\n      tag_13\n      calldatasize\n      0x04\n      tag_14\n      jump\t// in\n    tag_13:\n      tag_15\n      jump\t// in\n    tag_12:\n      mload(0x40)\n      tag_10\n      swap3\n      swap2\n      swap1\n      tag_17\n      jump\t// in\n        /* \"Smart Contracts/addFiveStorage.sol\":224:328  function store(uint256 _newNumber) public override {... */\n    tag_5:\n      tag_18\n      tag_19\n      calldatasize\n      0x04\n      tag_14\n      jump\t// in\n    tag_19:\n      tag_20\n      jump\t// in\n    tag_18:\n      stop\n        /* \"Smart Contracts/SimpleStorage.sol\":672:870  function addPerson(string memory _name, uint256 _favoriteNumber) public {... */\n    tag_6:\n      tag_18\n      tag_22\n      calldatasize\n      0x04\n      tag_23\n      jump\t// in\n    tag_22:\n      tag_24\n      jump\t// in\n        /* \"Smart Contracts/SimpleStorage.sol\":387:441  mapping(string => uint256) public nameToFavoriteNumber */\n    tag_7:\n      tag_8\n      tag_26\n      calldatasize\n      0x04\n      tag_27\n      jump\t// in\n    tag_26:\n      dup1\n      mload\n      0x20\n      dup2\n      dup4\n      add\n      dup2\n      add\n      dup1\n      mload\n      0x02\n      dup3\n      mstore\n      swap3\n      dup3\n      add\n      swap2\n      swap1\n      swap4\n      add\n      keccak256\n      swap2\n      mstore\n      sload\n      dup2\n      jump\n        /* \"Smart Contracts/SimpleStorage.sol\":330:358  Person[] public listOfPeople */\n    tag_15:\n      0x01\n      dup2\n      dup2\n      sload\n      dup2\n      lt\n      tag_31\n      jumpi\n      0x00\n      dup1\n      revert\n    tag_31:\n      0x00\n      swap2\n      dup3\n      mstore\n      0x20\n      swap1\n      swap2\n      keccak256\n      0x02\n      swap1\n      swap2\n      mul\n      add\n      dup1\n      sload\n      0x01\n      dup3\n      add\n      dup1\n      sload\n      swap2\n      swap4\n      pop\n      swap1\n      tag_33\n      swap1\n      tag_34\n      jump\t// in\n    tag_33:\n      dup1\n      0x1f\n      add\n      0x20\n      dup1\n      swap2\n      div\n      mul\n      0x20\n      add\n      mload(0x40)\n      swap1\n      dup2\n      add\n      0x40\n      mstore\n      dup1\n      swap3\n      swap2\n      swap1\n      dup2\n      dup2\n      mstore\n      0x20\n      add\n      dup3\n      dup1\n      sload\n      tag_35\n      swap1\n      tag_34\n      jump\t// in\n    tag_35:\n      dup1\n      iszero\n      tag_36\n      jumpi\n      dup1\n      0x1f\n      lt\n      tag_37\n      jumpi\n      0x0100\n      dup1\n      dup4\n      sload\n      div\n      mul\n      dup4\n      mstore\n      swap2\n      0x20\n      add\n      swap2\n      jump(tag_36)\n    tag_37:\n      dup3\n      add\n      swap2\n      swap1\n      0x00\n      mstore\n      keccak256(0x00, 0x20)\n      swap1\n    tag_38:\n      dup2\n      sload\n      dup2\n      mstore\n      swap1\n      0x01\n      add\n      swap1\n      0x20\n      add\n      dup1\n      dup4\n      gt\n      tag_38\n      jumpi\n      dup3\n      swap1\n      sub\n      0x1f\n      and\n      dup3\n      add\n      swap2\n    tag_36:\n      pop\n      pop\n      pop\n      pop\n      pop\n      swap1\n      pop\n      dup3\n      jump\t// out\n        /* \"Smart Contracts/addFiveStorage.sol\":224:328  function store(uint256 _newNumber) public override {... */\n    tag_20:\n        /* \"Smart Contracts/addFiveStorage.sol\":305:320  _newNumber +  5 */\n      tag_40\n        /* \"Smart Contracts/addFiveStorage.sol\":305:315  _newNumber */\n      dup2\n        /* \"Smart Contracts/addFiveStorage.sol\":319:320  5 */\n      0x05\n        /* \"Smart Contracts/addFiveStorage.sol\":305:320  _newNumber +  5 */\n      tag_41\n      jump\t// in\n    tag_40:\n        /* \"Smart Contracts/addFiveStorage.sol\":286:302  myFavoriteNumber */\n      0x00\n        /* \"Smart Contracts/addFiveStorage.sol\":286:320  myFavoriteNumber = _newNumber +  5 */\n      sstore\n      pop\n        /* \"Smart Contracts/addFiveStorage.sol\":224:328  function store(uint256 _newNumber) public override {... */\n      jump\t// out\n        /* \"Smart Contracts/SimpleStorage.sol\":672:870  function addPerson(string memory _name, uint256 _favoriteNumber) public {... */\n    tag_24:\n        /* \"Smart Contracts/SimpleStorage.sol\":774:804  Person(_favoriteNumber, _name) */\n      0x40\n      dup1\n      mload\n      dup1\n      dup3\n      add\n      swap1\n      swap2\n      mstore\n      dup2\n      dup2\n      mstore\n      0x20\n      dup2\n      add\n      dup4\n      dup2\n      mstore\n        /* \"Smart Contracts/SimpleStorage.sol\":755:767  listOfPeople */\n      0x01\n        /* \"Smart Contracts/SimpleStorage.sol\":755:806  listOfPeople.push( Person(_favoriteNumber, _name) ) */\n      dup1\n      sload\n      dup1\n      dup3\n      add\n      dup3\n      sstore\n      0x00\n      swap2\n      swap1\n      swap2\n      mstore\n      dup3\n      mload\n      0x02\n      swap1\n      swap2\n      mul\n      0xb10e2d527612073b26eecdfd717e6a320cf44b4afac2b0732d9fcbe2b7fa0cf6\n      dup2\n      add\n      swap2\n      dup3\n      sstore\n      swap2\n      mload\n      swap1\n      swap2\n      0xb10e2d527612073b26eecdfd717e6a320cf44b4afac2b0732d9fcbe2b7fa0cf7\n      add\n      swap1\n      tag_44\n      swap1\n      dup3\n      tag_45\n      jump\t// in\n    tag_44:\n      pop\n      pop\n      pop\n        /* \"Smart Contracts/SimpleStorage.sol\":847:862  _favoriteNumber */\n      dup1\n        /* \"Smart Contracts/SimpleStorage.sol\":817:837  nameToFavoriteNumber */\n      0x02\n        /* \"Smart Contracts/SimpleStorage.sol\":838:843  _name */\n      dup4\n        /* \"Smart Contracts/SimpleStorage.sol\":817:844  nameToFavoriteNumber[_name] */\n      mload(0x40)\n      tag_46\n      swap2\n      swap1\n      tag_47\n      jump\t// in\n    tag_46:\n      swap1\n      dup2\n      mstore\n      mload(0x40)\n      swap1\n      dup2\n      swap1\n      sub\n      0x20\n      add\n      swap1\n      keccak256\n        /* \"Smart Contracts/SimpleStorage.sol\":817:862  nameToFavoriteNumber[_name] = _favoriteNumber */\n      sstore\n      pop\n      pop\n        /* \"Smart Contracts/SimpleStorage.sol\":672:870  function addPerson(string memory _name, uint256 _favoriteNumber) public {... */\n      jump\t// out\n        /* \"#utility.yul\":196:376   */\n    tag_14:\n        /* \"#utility.yul\":255:261   */\n      0x00\n        /* \"#utility.yul\":308:310   */\n      0x20\n        /* \"#utility.yul\":296:305   */\n      dup3\n        /* \"#utility.yul\":287:294   */\n      dup5\n        /* \"#utility.yul\":283:306   */\n      sub\n        /* \"#utility.yul\":279:311   */\n      slt\n        /* \"#utility.yul\":276:328   */\n      iszero\n      tag_57\n      jumpi\n        /* \"#utility.yul\":324:325   */\n      0x00\n        /* \"#utility.yul\":321:322   */\n      dup1\n        /* \"#utility.yul\":314:326   */\n      revert\n        /* \"#utility.yul\":276:328   */\n    tag_57:\n      pop\n        /* \"#utility.yul\":347:370   */\n      calldataload\n      swap2\n        /* \"#utility.yul\":196:376   */\n      swap1\n      pop\n      jump\t// out\n        /* \"#utility.yul\":381:631   */\n    tag_48:\n        /* \"#utility.yul\":466:467   */\n      0x00\n        /* \"#utility.yul\":476:589   */\n    tag_59:\n        /* \"#utility.yul\":490:496   */\n      dup4\n        /* \"#utility.yul\":487:488   */\n      dup2\n        /* \"#utility.yul\":484:497   */\n      lt\n        /* \"#utility.yul\":476:589   */\n      iszero\n      tag_61\n      jumpi\n        /* \"#utility.yul\":566:577   */\n      dup2\n      dup2\n      add\n        /* \"#utility.yul\":560:578   */\n      mload\n        /* \"#utility.yul\":547:558   */\n      dup4\n      dup3\n      add\n        /* \"#utility.yul\":540:579   */\n      mstore\n        /* \"#utility.yul\":512:514   */\n      0x20\n        /* \"#utility.yul\":505:515   */\n      add\n        /* \"#utility.yul\":476:589   */\n      jump(tag_59)\n    tag_61:\n      pop\n      pop\n        /* \"#utility.yul\":623:624   */\n      0x00\n        /* \"#utility.yul\":605:621   */\n      swap2\n      add\n        /* \"#utility.yul\":598:625   */\n      mstore\n        /* \"#utility.yul\":381:631   */\n      jump\t// out\n        /* \"#utility.yul\":636:1103   */\n    tag_17:\n        /* \"#utility.yul\":813:819   */\n      dup3\n        /* \"#utility.yul\":802:811   */\n      dup2\n        /* \"#utility.yul\":795:820   */\n      mstore\n        /* \"#utility.yul\":856:858   */\n      0x40\n        /* \"#utility.yul\":851:853   */\n      0x20\n        /* \"#utility.yul\":840:849   */\n      dup3\n        /* \"#utility.yul\":836:854   */\n      add\n        /* \"#utility.yul\":829:859   */\n      mstore\n        /* \"#utility.yul\":776:780   */\n      0x00\n        /* \"#utility.yul\":888:894   */\n      dup3\n        /* \"#utility.yul\":882:895   */\n      mload\n        /* \"#utility.yul\":931:937   */\n      dup1\n        /* \"#utility.yul\":926:928   */\n      0x40\n        /* \"#utility.yul\":915:924   */\n      dup5\n        /* \"#utility.yul\":911:929   */\n      add\n        /* \"#utility.yul\":904:938   */\n      mstore\n        /* \"#utility.yul\":947:1026   */\n      tag_63\n        /* \"#utility.yul\":1019:1025   */\n      dup2\n        /* \"#utility.yul\":1014:1016   */\n      0x60\n        /* \"#utility.yul\":1003:1012   */\n      dup6\n        /* \"#utility.yul\":999:1017   */\n      add\n        /* \"#utility.yul\":994:996   */\n      0x20\n        /* \"#utility.yul\":986:992   */\n      dup8\n        /* \"#utility.yul\":982:997   */\n      add\n        /* \"#utility.yul\":947:1026   */\n      tag_48\n      jump\t// in\n    tag_63:\n        /* \"#utility.yul\":1087:1089   */\n      0x1f\n        /* \"#utility.yul\":1066:1081   */\n      add\n      not(0x1f)\n        /* \"#utility.yul\":1062:1091   */\n      and\n        /* \"#utility.yul\":1047:1092   */\n      swap2\n      swap1\n      swap2\n      add\n        /* \"#utility.yul\":1094:1096   */\n      0x60\n        /* \"#utility.yul\":1043:1097   */\n      add\n      swap4\n        /* \"#utility.yul\":636:1103   */\n      swap3\n      pop\n      pop\n      pop\n      jump\t// out\n        /* \"#utility.yul\":1108:1235   */\n    tag_49:\n        /* \"#utility.yul\":1169:1179   */\n      0x4e487b71\n        /* \"#utility.yul\":1164:1167   */\n      0xe0\n        /* \"#utility.yul\":1160:1180   */\n      shl\n        /* \"#utility.yul\":1157:1158   */\n      0x00\n        /* \"#utility.yul\":1150:1181   */\n      mstore\n        /* \"#utility.yul\":1200:1204   */\n      0x41\n        /* \"#utility.yul\":1197:1198   */\n      0x04\n        /* \"#utility.yul\":1190:1205   */\n      mstore\n        /* \"#utility.yul\":1224:1228   */\n      0x24\n        /* \"#utility.yul\":1221:1222   */\n      0x00\n        /* \"#utility.yul\":1214:1229   */\n      revert\n        /* \"#utility.yul\":1240:1959   */\n    tag_50:\n        /* \"#utility.yul\":1283:1288   */\n      0x00\n        /* \"#utility.yul\":1336:1339   */\n      dup3\n        /* \"#utility.yul\":1329:1333   */\n      0x1f\n        /* \"#utility.yul\":1321:1327   */\n      dup4\n        /* \"#utility.yul\":1317:1334   */\n      add\n        /* \"#utility.yul\":1313:1340   */\n      slt\n        /* \"#utility.yul\":1303:1358   */\n      tag_66\n      jumpi\n        /* \"#utility.yul\":1354:1355   */\n      0x00\n        /* \"#utility.yul\":1351:1352   */\n      dup1\n        /* \"#utility.yul\":1344:1356   */\n      revert\n        /* \"#utility.yul\":1303:1358   */\n    tag_66:\n        /* \"#utility.yul\":1390:1396   */\n      dup2\n        /* \"#utility.yul\":1377:1397   */\n      calldataload\n        /* \"#utility.yul\":1416:1434   */\n      0xffffffffffffffff\n        /* \"#utility.yul\":1453:1455   */\n      dup1\n        /* \"#utility.yul\":1449:1451   */\n      dup3\n        /* \"#utility.yul\":1446:1456   */\n      gt\n        /* \"#utility.yul\":1443:1479   */\n      iszero\n      tag_68\n      jumpi\n        /* \"#utility.yul\":1459:1477   */\n      tag_68\n      tag_49\n      jump\t// in\n    tag_68:\n        /* \"#utility.yul\":1534:1536   */\n      0x40\n        /* \"#utility.yul\":1528:1537   */\n      mload\n        /* \"#utility.yul\":1502:1504   */\n      0x1f\n        /* \"#utility.yul\":1588:1601   */\n      dup4\n      add\n      not(0x1f)\n        /* \"#utility.yul\":1584:1606   */\n      swap1\n      dup2\n      and\n        /* \"#utility.yul\":1608:1610   */\n      0x3f\n        /* \"#utility.yul\":1580:1611   */\n      add\n        /* \"#utility.yul\":1576:1616   */\n      and\n        /* \"#utility.yul\":1564:1617   */\n      dup2\n      add\n      swap1\n        /* \"#utility.yul\":1632:1650   */\n      dup3\n      dup3\n      gt\n        /* \"#utility.yul\":1652:1674   */\n      dup2\n      dup4\n      lt\n        /* \"#utility.yul\":1629:1675   */\n      or\n        /* \"#utility.yul\":1626:1698   */\n      iszero\n      tag_70\n      jumpi\n        /* \"#utility.yul\":1678:1696   */\n      tag_70\n      tag_49\n      jump\t// in\n    tag_70:\n        /* \"#utility.yul\":1718:1728   */\n      dup2\n        /* \"#utility.yul\":1714:1716   */\n      0x40\n        /* \"#utility.yul\":1707:1729   */\n      mstore\n        /* \"#utility.yul\":1753:1755   */\n      dup4\n        /* \"#utility.yul\":1745:1751   */\n      dup2\n        /* \"#utility.yul\":1738:1756   */\n      mstore\n        /* \"#utility.yul\":1799:1802   */\n      dup7\n        /* \"#utility.yul\":1792:1796   */\n      0x20\n        /* \"#utility.yul\":1787:1789   */\n      dup6\n        /* \"#utility.yul\":1779:1785   */\n      dup9\n        /* \"#utility.yul\":1775:1790   */\n      add\n        /* \"#utility.yul\":1771:1797   */\n      add\n        /* \"#utility.yul\":1768:1803   */\n      gt\n        /* \"#utility.yul\":1765:1820   */\n      iszero\n      tag_71\n      jumpi\n        /* \"#utility.yul\":1816:1817   */\n      0x00\n        /* \"#utility.yul\":1813:1814   */\n      dup1\n        /* \"#utility.yul\":1806:1818   */\n      revert\n        /* \"#utility.yul\":1765:1820   */\n    tag_71:\n        /* \"#utility.yul\":1880:1882   */\n      dup4\n        /* \"#utility.yul\":1873:1877   */\n      0x20\n        /* \"#utility.yul\":1865:1871   */\n      dup8\n        /* \"#utility.yul\":1861:1878   */\n      add\n        /* \"#utility.yul\":1854:1858   */\n      0x20\n        /* \"#utility.yul\":1846:1852   */\n      dup4\n        /* \"#utility.yul\":1842:1859   */\n      add\n        /* \"#utility.yul\":1829:1883   */\n      calldatacopy\n        /* \"#utility.yul\":1927:1928   */\n      0x00\n        /* \"#utility.yul\":1920:1924   */\n      0x20\n        /* \"#utility.yul\":1915:1917   */\n      dup6\n        /* \"#utility.yul\":1907:1913   */\n      dup4\n        /* \"#utility.yul\":1903:1918   */\n      add\n        /* \"#utility.yul\":1899:1925   */\n      add\n        /* \"#utility.yul\":1892:1929   */\n      mstore\n        /* \"#utility.yul\":1947:1953   */\n      dup1\n        /* \"#utility.yul\":1938:1953   */\n      swap5\n      pop\n      pop\n      pop\n      pop\n      pop\n        /* \"#utility.yul\":1240:1959   */\n      swap3\n      swap2\n      pop\n      pop\n      jump\t// out\n        /* \"#utility.yul\":1964:2354   */\n    tag_23:\n        /* \"#utility.yul\":2042:2048   */\n      0x00\n        /* \"#utility.yul\":2050:2056   */\n      dup1\n        /* \"#utility.yul\":2103:2105   */\n      0x40\n        /* \"#utility.yul\":2091:2100   */\n      dup4\n        /* \"#utility.yul\":2082:2089   */\n      dup6\n        /* \"#utility.yul\":2078:2101   */\n      sub\n        /* \"#utility.yul\":2074:2106   */\n      slt\n        /* \"#utility.yul\":2071:2123   */\n      iszero\n      tag_73\n      jumpi\n        /* \"#utility.yul\":2119:2120   */\n      0x00\n        /* \"#utility.yul\":2116:2117   */\n      dup1\n        /* \"#utility.yul\":2109:2121   */\n      revert\n        /* \"#utility.yul\":2071:2123   */\n    tag_73:\n        /* \"#utility.yul\":2159:2168   */\n      dup3\n        /* \"#utility.yul\":2146:2169   */\n      calldataload\n        /* \"#utility.yul\":2192:2210   */\n      0xffffffffffffffff\n        /* \"#utility.yul\":2184:2190   */\n      dup2\n        /* \"#utility.yul\":2181:2211   */\n      gt\n        /* \"#utility.yul\":2178:2228   */\n      iszero\n      tag_74\n      jumpi\n        /* \"#utility.yul\":2224:2225   */\n      0x00\n        /* \"#utility.yul\":2221:2222   */\n      dup1\n        /* \"#utility.yul\":2214:2226   */\n      revert\n        /* \"#utility.yul\":2178:2228   */\n    tag_74:\n        /* \"#utility.yul\":2247:2297   */\n      tag_75\n        /* \"#utility.yul\":2289:2296   */\n      dup6\n        /* \"#utility.yul\":2280:2286   */\n      dup3\n        /* \"#utility.yul\":2269:2278   */\n      dup7\n        /* \"#utility.yul\":2265:2287   */\n      add\n        /* \"#utility.yul\":2247:2297   */\n      tag_50\n      jump\t// in\n    tag_75:\n        /* \"#utility.yul\":2237:2297   */\n      swap6\n        /* \"#utility.yul\":2344:2346   */\n      0x20\n        /* \"#utility.yul\":2329:2347   */\n      swap5\n      swap1\n      swap5\n      add\n        /* \"#utility.yul\":2316:2348   */\n      calldataload\n      swap5\n      pop\n      pop\n      pop\n      pop\n        /* \"#utility.yul\":1964:2354   */\n      jump\t// out\n        /* \"#utility.yul\":2359:2681   */\n    tag_27:\n        /* \"#utility.yul\":2428:2434   */\n      0x00\n        /* \"#utility.yul\":2481:2483   */\n      0x20\n        /* \"#utility.yul\":2469:2478   */\n      dup3\n        /* \"#utility.yul\":2460:2467   */\n      dup5\n        /* \"#utility.yul\":2456:2479   */\n      sub\n        /* \"#utility.yul\":2452:2484   */\n      slt\n        /* \"#utility.yul\":2449:2501   */\n      iszero\n      tag_77\n      jumpi\n        /* \"#utility.yul\":2497:2498   */\n      0x00\n        /* \"#utility.yul\":2494:2495   */\n      dup1\n        /* \"#utility.yul\":2487:2499   */\n      revert\n        /* \"#utility.yul\":2449:2501   */\n    tag_77:\n        /* \"#utility.yul\":2537:2546   */\n      dup2\n        /* \"#utility.yul\":2524:2547   */\n      calldataload\n        /* \"#utility.yul\":2570:2588   */\n      0xffffffffffffffff\n        /* \"#utility.yul\":2562:2568   */\n      dup2\n        /* \"#utility.yul\":2559:2589   */\n      gt\n        /* \"#utility.yul\":2556:2606   */\n      iszero\n      tag_78\n      jumpi\n        /* \"#utility.yul\":2602:2603   */\n      0x00\n        /* \"#utility.yul\":2599:2600   */\n      dup1\n        /* \"#utility.yul\":2592:2604   */\n      revert\n        /* \"#utility.yul\":2556:2606   */\n    tag_78:\n        /* \"#utility.yul\":2625:2675   */\n      tag_79\n        /* \"#utility.yul\":2667:2674   */\n      dup5\n        /* \"#utility.yul\":2658:2664   */\n      dup3\n        /* \"#utility.yul\":2647:2656   */\n      dup6\n        /* \"#utility.yul\":2643:2665   */\n      add\n        /* \"#utility.yul\":2625:2675   */\n      tag_50\n      jump\t// in\n    tag_79:\n        /* \"#utility.yul\":2615:2675   */\n      swap5\n        /* \"#utility.yul\":2359:2681   */\n      swap4\n      pop\n      pop\n      pop\n      pop\n      jump\t// out\n        /* \"#utility.yul\":2686:3066   */\n    tag_34:\n        /* \"#utility.yul\":2765:2766   */\n      0x01\n        /* \"#utility.yul\":2761:2773   */\n      dup2\n      dup2\n      shr\n      swap1\n        /* \"#utility.yul\":2808:2820   */\n      dup3\n      and\n      dup1\n        /* \"#utility.yul\":2829:2890   */\n      tag_81\n      jumpi\n        /* \"#utility.yul\":2883:2887   */\n      0x7f\n        /* \"#utility.yul\":2875:2881   */\n      dup3\n        /* \"#utility.yul\":2871:2888   */\n      and\n        /* \"#utility.yul\":2861:2888   */\n      swap2\n      pop\n        /* \"#utility.yul\":2829:2890   */\n    tag_81:\n        /* \"#utility.yul\":2936:2938   */\n      0x20\n        /* \"#utility.yul\":2928:2934   */\n      dup3\n        /* \"#utility.yul\":2925:2939   */\n      lt\n        /* \"#utility.yul\":2905:2923   */\n      dup2\n        /* \"#utility.yul\":2902:2940   */\n      sub\n        /* \"#utility.yul\":2899:3060   */\n      tag_82\n      jumpi\n        /* \"#utility.yul\":2982:2992   */\n      0x4e487b71\n        /* \"#utility.yul\":2977:2980   */\n      0xe0\n        /* \"#utility.yul\":2973:2993   */\n      shl\n        /* \"#utility.yul\":2970:2971   */\n      0x00\n        /* \"#utility.yul\":2963:2994   */\n      mstore\n        /* \"#utility.yul\":3017:3021   */\n      0x22\n        /* \"#utility.yul\":3014:3015   */\n      0x04\n        /* \"#utility.yul\":3007:3022   */\n      mstore\n        /* \"#utility.yul\":3045:3049   */\n      0x24\n        /* \"#utility.yul\":3042:3043   */\n      0x00\n        /* \"#utility.yul\":3035:3050   */\n      revert\n        /* \"#utility.yul\":2899:3060   */\n    tag_82:\n      pop\n        /* \"#utility.yul\":2686:3066   */\n      swap2\n      swap1\n      pop\n      jump\t// out\n        /* \"#utility.yul\":3071:3293   */\n    tag_41:\n        /* \"#utility.yul\":3136:3145   */\n      dup1\n      dup3\n      add\n        /* \"#utility.yul\":3157:3167   */\n      dup1\n      dup3\n      gt\n        /* \"#utility.yul\":3154:3287   */\n      iszero\n      tag_84\n      jumpi\n        /* \"#utility.yul\":3209:3219   */\n      0x4e487b71\n        /* \"#utility.yul\":3204:3207   */\n      0xe0\n        /* \"#utility.yul\":3200:3220   */\n      shl\n        /* \"#utility.yul\":3197:3198   */\n      0x00\n        /* \"#utility.yul\":3190:3221   */\n      mstore\n        /* \"#utility.yul\":3244:3248   */\n      0x11\n        /* \"#utility.yul\":3241:3242   */\n      0x04\n        /* \"#utility.yul\":3234:3249   */\n      mstore\n        /* \"#utility.yul\":3272:3276   */\n      0x24\n        /* \"#utility.yul\":3269:3270   */\n      0x00\n        /* \"#utility.yul\":3262:3277   */\n      revert\n        /* \"#utility.yul\":3154:3287   */\n    tag_84:\n        /* \"#utility.yul\":3071:3293   */\n      swap3\n      swap2\n      pop\n      pop\n      jump\t// out\n        /* \"#utility.yul\":3424:3967   */\n    tag_52:\n        /* \"#utility.yul\":3526:3528   */\n      0x1f\n        /* \"#utility.yul\":3521:3524   */\n      dup3\n        /* \"#utility.yul\":3518:3529   */\n      gt\n        /* \"#utility.yul\":3515:3961   */\n      iszero\n      tag_87\n      jumpi\n        /* \"#utility.yul\":3562:3563   */\n      0x00\n        /* \"#utility.yul\":3586:3591   */\n      dup2\n        /* \"#utility.yul\":3583:3584   */\n      0x00\n        /* \"#utility.yul\":3576:3592   */\n      mstore\n        /* \"#utility.yul\":3630:3634   */\n      0x20\n        /* \"#utility.yul\":3627:3628   */\n      0x00\n        /* \"#utility.yul\":3617:3635   */\n      keccak256\n        /* \"#utility.yul\":3700:3702   */\n      0x1f\n        /* \"#utility.yul\":3688:3698   */\n      dup6\n        /* \"#utility.yul\":3684:3703   */\n      add\n        /* \"#utility.yul\":3681:3682   */\n      0x05\n        /* \"#utility.yul\":3677:3704   */\n      shr\n        /* \"#utility.yul\":3671:3675   */\n      dup2\n        /* \"#utility.yul\":3667:3705   */\n      add\n        /* \"#utility.yul\":3736:3740   */\n      0x20\n        /* \"#utility.yul\":3724:3734   */\n      dup7\n        /* \"#utility.yul\":3721:3741   */\n      lt\n        /* \"#utility.yul\":3718:3765   */\n      iszero\n      tag_88\n      jumpi\n      pop\n        /* \"#utility.yul\":3759:3763   */\n      dup1\n        /* \"#utility.yul\":3718:3765   */\n    tag_88:\n        /* \"#utility.yul\":3814:3816   */\n      0x1f\n        /* \"#utility.yul\":3809:3812   */\n      dup6\n        /* \"#utility.yul\":3805:3817   */\n      add\n        /* \"#utility.yul\":3802:3803   */\n      0x05\n        /* \"#utility.yul\":3798:3818   */\n      shr\n        /* \"#utility.yul\":3792:3796   */\n      dup3\n        /* \"#utility.yul\":3788:3819   */\n      add\n        /* \"#utility.yul\":3778:3819   */\n      swap2\n      pop\n        /* \"#utility.yul\":3869:3951   */\n    tag_89:\n        /* \"#utility.yul\":3887:3889   */\n      dup2\n        /* \"#utility.yul\":3880:3885   */\n      dup2\n        /* \"#utility.yul\":3877:3890   */\n      lt\n        /* \"#utility.yul\":3869:3951   */\n      iszero\n      tag_91\n      jumpi\n        /* \"#utility.yul\":3932:3949   */\n      dup3\n      dup2\n      sstore\n        /* \"#utility.yul\":3913:3914   */\n      0x01\n        /* \"#utility.yul\":3902:3915   */\n      add\n        /* \"#utility.yul\":3869:3951   */\n      jump(tag_89)\n    tag_91:\n        /* \"#utility.yul\":3873:3876   */\n      pop\n      pop\n      pop\n        /* \"#utility.yul\":3515:3961   */\n    tag_87:\n        /* \"#utility.yul\":3424:3967   */\n      pop\n      pop\n      pop\n      jump\t// out\n        /* \"#utility.yul\":4143:5488   */\n    tag_45:\n        /* \"#utility.yul\":4269:4272   */\n      dup2\n        /* \"#utility.yul\":4263:4273   */\n      mload\n        /* \"#utility.yul\":4296:4314   */\n      0xffffffffffffffff\n        /* \"#utility.yul\":4288:4294   */\n      dup2\n        /* \"#utility.yul\":4285:4315   */\n      gt\n        /* \"#utility.yul\":4282:4338   */\n      iszero\n      tag_95\n      jumpi\n        /* \"#utility.yul\":4318:4336   */\n      tag_95\n      tag_49\n      jump\t// in\n    tag_95:\n        /* \"#utility.yul\":4347:4444   */\n      tag_96\n        /* \"#utility.yul\":4437:4443   */\n      dup2\n        /* \"#utility.yul\":4397:4435   */\n      tag_97\n        /* \"#utility.yul\":4429:4433   */\n      dup5\n        /* \"#utility.yul\":4423:4434   */\n      sload\n        /* \"#utility.yul\":4397:4435   */\n      tag_34\n      jump\t// in\n    tag_97:\n        /* \"#utility.yul\":4391:4395   */\n      dup5\n        /* \"#utility.yul\":4347:4444   */\n      tag_52\n      jump\t// in\n    tag_96:\n        /* \"#utility.yul\":4499:4503   */\n      0x20\n      dup1\n        /* \"#utility.yul\":4556:4558   */\n      0x1f\n        /* \"#utility.yul\":4545:4559   */\n      dup4\n      gt\n        /* \"#utility.yul\":4573:4574   */\n      0x01\n        /* \"#utility.yul\":4568:5231   */\n      dup2\n      eq\n      tag_99\n      jumpi\n        /* \"#utility.yul\":5275:5276   */\n      0x00\n        /* \"#utility.yul\":5292:5298   */\n      dup5\n        /* \"#utility.yul\":5289:5378   */\n      iszero\n      tag_100\n      jumpi\n      pop\n        /* \"#utility.yul\":5344:5363   */\n      dup6\n      dup4\n      add\n        /* \"#utility.yul\":5338:5364   */\n      mload\n        /* \"#utility.yul\":5289:5378   */\n    tag_100:\n      not(0x00)\n        /* \"#utility.yul\":4100:4101   */\n      0x03\n        /* \"#utility.yul\":4096:4107   */\n      dup7\n      swap1\n      shl\n        /* \"#utility.yul\":4092:4116   */\n      shr\n        /* \"#utility.yul\":4088:4117   */\n      not\n        /* \"#utility.yul\":4078:4118   */\n      and\n        /* \"#utility.yul\":4124:4125   */\n      0x01\n        /* \"#utility.yul\":4120:4131   */\n      dup6\n      swap1\n      shl\n        /* \"#utility.yul\":4075:4132   */\n      or\n        /* \"#utility.yul\":5391:5472   */\n      dup6\n      sstore\n        /* \"#utility.yul\":4538:5482   */\n      jump(tag_91)\n        /* \"#utility.yul\":4568:5231   */\n    tag_99:\n        /* \"#utility.yul\":3371:3372   */\n      0x00\n        /* \"#utility.yul\":3364:3378   */\n      dup6\n      dup2\n      mstore\n        /* \"#utility.yul\":3408:3412   */\n      0x20\n        /* \"#utility.yul\":3395:3413   */\n      dup2\n      keccak256\n      not(0x1f)\n        /* \"#utility.yul\":4604:4624   */\n      dup7\n      and\n      swap2\n        /* \"#utility.yul\":4722:4958   */\n    tag_103:\n        /* \"#utility.yul\":4736:4743   */\n      dup3\n        /* \"#utility.yul\":4733:4734   */\n      dup2\n        /* \"#utility.yul\":4730:4744   */\n      lt\n        /* \"#utility.yul\":4722:4958   */\n      iszero\n      tag_105\n      jumpi\n        /* \"#utility.yul\":4825:4844   */\n      dup9\n      dup7\n      add\n        /* \"#utility.yul\":4819:4845   */\n      mload\n        /* \"#utility.yul\":4804:4846   */\n      dup3\n      sstore\n        /* \"#utility.yul\":4917:4944   */\n      swap5\n      dup5\n      add\n      swap5\n        /* \"#utility.yul\":4885:4886   */\n      0x01\n        /* \"#utility.yul\":4873:4887   */\n      swap1\n      swap2\n      add\n      swap1\n        /* \"#utility.yul\":4752:4771   */\n      dup5\n      add\n        /* \"#utility.yul\":4722:4958   */\n      jump(tag_103)\n    tag_105:\n        /* \"#utility.yul\":4726:4729   */\n      pop\n        /* \"#utility.yul\":4986:4992   */\n      dup6\n        /* \"#utility.yul\":4977:4984   */\n      dup3\n        /* \"#utility.yul\":4974:4993   */\n      lt\n        /* \"#utility.yul\":4971:5172   */\n      iszero\n      tag_106\n      jumpi\n        /* \"#utility.yul\":5047:5066   */\n      dup8\n      dup6\n      add\n        /* \"#utility.yul\":5041:5067   */\n      mload\n      not(0x00)\n        /* \"#utility.yul\":5130:5131   */\n      0x03\n        /* \"#utility.yul\":5126:5140   */\n      dup9\n      swap1\n      shl\n        /* \"#utility.yul\":5142:5145   */\n      0xf8\n        /* \"#utility.yul\":5122:5146   */\n      and\n        /* \"#utility.yul\":5118:5155   */\n      shr\n        /* \"#utility.yul\":5114:5156   */\n      not\n        /* \"#utility.yul\":5099:5157   */\n      and\n        /* \"#utility.yul\":5084:5158   */\n      dup2\n      sstore\n        /* \"#utility.yul\":4971:5172   */\n    tag_106:\n      pop\n      pop\n      pop\n      pop\n      pop\n        /* \"#utility.yul\":5218:5219   */\n      0x01\n        /* \"#utility.yul\":5202:5216   */\n      swap1\n      dup2\n      shl\n        /* \"#utility.yul\":5198:5220   */\n      add\n        /* \"#utility.yul\":5185:5221   */\n      swap1\n      sstore\n      pop\n        /* \"#utility.yul\":4143:5488   */\n      jump\t// out\n        /* \"#utility.yul\":5493:5782   */\n    tag_47:\n        /* \"#utility.yul\":5624:5627   */\n      0x00\n        /* \"#utility.yul\":5662:5668   */\n      dup3\n        /* \"#utility.yul\":5656:5669   */\n      mload\n        /* \"#utility.yul\":5678:5744   */\n      tag_108\n        /* \"#utility.yul\":5737:5743   */\n      dup2\n        /* \"#utility.yul\":5732:5735   */\n      dup5\n        /* \"#utility.yul\":5725:5729   */\n      0x20\n        /* \"#utility.yul\":5717:5723   */\n      dup8\n        /* \"#utility.yul\":5713:5730   */\n      add\n        /* \"#utility.yul\":5678:5744   */\n      tag_48\n      jump\t// in\n    tag_108:\n        /* \"#utility.yul\":5760:5776   */\n      swap2\n      swap1\n      swap2\n      add\n      swap3\n        /* \"#utility.yul\":5493:5782   */\n      swap2\n      pop\n      pop\n      jump\t// out\n\n    auxdata: 0xa2646970667358221220155a86f7c66965b8e014f3509412a4e0d8b91c1ce9d0d2c0f606ea0100b3b38564736f6c63430008180033\n}\n",
				"bytecode": {
					"linkReferences": {},
					"object": "608060405234801561001057600080fd5b506105b9806100206000396000f3fe608060405234801561001057600080fd5b50600436106100575760003560e01c80632e64cec11461005c5780632ebce631146100735780636057361d146100945780636f760f41146100a95780638bab8dd5146100bc575b600080fd5b6000545b6040519081526020015b60405180910390f35b610086610081366004610259565b6100e7565b60405161006a929190610296565b6100a76100a2366004610259565b61019f565b005b6100a76100b7366004610373565b6101b0565b6100606100ca3660046103b8565b805160208183018101805160028252928201919093012091525481565b600181815481106100f757600080fd5b6000918252602090912060029091020180546001820180549193509061011c906103f5565b80601f0160208091040260200160405190810160405280929190818152602001828054610148906103f5565b80156101955780601f1061016a57610100808354040283529160200191610195565b820191906000526020600020905b81548152906001019060200180831161017857829003601f168201915b5050505050905082565b6101aa81600561042f565b60005550565b6040805180820190915281815260208101838152600180548082018255600091909152825160029091027fb10e2d527612073b26eecdfd717e6a320cf44b4afac2b0732d9fcbe2b7fa0cf68101918255915190917fb10e2d527612073b26eecdfd717e6a320cf44b4afac2b0732d9fcbe2b7fa0cf7019061023190826104a7565b505050806002836040516102459190610567565b908152604051908190036020019020555050565b60006020828403121561026b57600080fd5b5035919050565b60005b8381101561028d578181015183820152602001610275565b50506000910152565b82815260406020820152600082518060408401526102bb816060850160208701610272565b601f01601f1916919091016060019392505050565b634e487b7160e01b600052604160045260246000fd5b600082601f8301126102f757600080fd5b813567ffffffffffffffff80821115610312576103126102d0565b604051601f8301601f19908116603f0116810190828211818310171561033a5761033a6102d0565b8160405283815286602085880101111561035357600080fd5b836020870160208301376000602085830101528094505050505092915050565b6000806040838503121561038657600080fd5b823567ffffffffffffffff81111561039d57600080fd5b6103a9858286016102e6565b95602094909401359450505050565b6000602082840312156103ca57600080fd5b813567ffffffffffffffff8111156103e157600080fd5b6103ed848285016102e6565b949350505050565b600181811c9082168061040957607f821691505b60208210810361042957634e487b7160e01b600052602260045260246000fd5b50919050565b8082018082111561045057634e487b7160e01b600052601160045260246000fd5b92915050565b601f8211156104a2576000816000526020600020601f850160051c8101602086101561047f5750805b601f850160051c820191505b8181101561049e5782815560010161048b565b5050505b505050565b815167ffffffffffffffff8111156104c1576104c16102d0565b6104d5816104cf84546103f5565b84610456565b602080601f83116001811461050a57600084156104f25750858301515b600019600386901b1c1916600185901b17855561049e565b600085815260208120601f198616915b828110156105395788860151825594840194600190910190840161051a565b50858210156105575787850151600019600388901b60f8161c191681555b5050505050600190811b01905550565b60008251610579818460208701610272565b919091019291505056fea2646970667358221220155a86f7c66965b8e014f3509412a4e0d8b91c1ce9d0d2c0f606ea0100b3b38564736f6c63430008180033",
					"opcodes": "PUSH1 0x80 PUSH1 0x40 MSTORE CALLVALUE DUP1 ISZERO PUSH2 0x10 JUMPI PUSH1 0x0 DUP1 REVERT JUMPDEST POP PUSH2 0x5B9 DUP1 PUSH2 0x20 PUSH1 0x0 CODECOPY PUSH1 0x0 RETURN INVALID PUSH1 0x80 PUSH1 0x40 MSTORE CALLVALUE DUP1 ISZERO PUSH2 0x10 JUMPI PUSH1 0x0 DUP1 REVERT JUMPDEST POP PUSH1 0x4 CALLDATASIZE LT PUSH2 0x57 JUMPI PUSH1 0x0 CALLDATALOAD PUSH1 0xE0 SHR DUP1 PUSH4 0x2E64CEC1 EQ PUSH2 0x5C JUMPI DUP1 PUSH4 0x2EBCE631 EQ PUSH2 0x73 JUMPI DUP1 PUSH4 0x6057361D EQ PUSH2 0x94 JUMPI DUP1 PUSH4 0x6F760F41 EQ PUSH2 0xA9 JUMPI DUP1 PUSH4 0x8BAB8DD5 EQ PUSH2 0xBC JUMPI JUMPDEST PUSH1 0x0 DUP1 REVERT JUMPDEST PUSH1 0x0 SLOAD JUMPDEST PUSH1 0x40 MLOAD SWAP1 DUP2 MSTORE PUSH1 0x20 ADD JUMPDEST PUSH1 0x40 MLOAD DUP1 SWAP2 SUB SWAP1 RETURN JUMPDEST PUSH2 0x86 PUSH2 0x81 CALLDATASIZE PUSH1 0x4 PUSH2 0x259 JUMP JUMPDEST PUSH2 0xE7 JUMP JUMPDEST PUSH1 0x40 MLOAD PUSH2 0x6A SWAP3 SWAP2 SWAP1 PUSH2 0x296 JUMP JUMPDEST PUSH2 0xA7 PUSH2 0xA2 CALLDATASIZE PUSH1 0x4 PUSH2 0x259 JUMP JUMPDEST PUSH2 0x19F JUMP JUMPDEST STOP JUMPDEST PUSH2 0xA7 PUSH2 0xB7 CALLDATASIZE PUSH1 0x4 PUSH2 0x373 JUMP JUMPDEST PUSH2 0x1B0 JUMP JUMPDEST PUSH2 0x60 PUSH2 0xCA CALLDATASIZE PUSH1 0x4 PUSH2 0x3B8 JUMP JUMPDEST DUP1 MLOAD PUSH1 0x20 DUP2 DUP4 ADD DUP2 ADD DUP1 MLOAD PUSH1 0x2 DUP3 MSTORE SWAP3 DUP3 ADD SWAP2 SWAP1 SWAP4 ADD KECCAK256 SWAP2 MSTORE SLOAD DUP2 JUMP JUMPDEST PUSH1 0x1 DUP2 DUP2 SLOAD DUP2 LT PUSH2 0xF7 JUMPI PUSH1 0x0 DUP1 REVERT JUMPDEST PUSH1 0x0 SWAP2 DUP3 MSTORE PUSH1 0x20 SWAP1 SWAP2 KECCAK256 PUSH1 0x2 SWAP1 SWAP2 MUL ADD DUP1 SLOAD PUSH1 0x1 DUP3 ADD DUP1 SLOAD SWAP2 SWAP4 POP SWAP1 PUSH2 0x11C SWAP1 PUSH2 0x3F5 JUMP JUMPDEST DUP1 PUSH1 0x1F ADD PUSH1 0x20 DUP1 SWAP2 DIV MUL PUSH1 0x20 ADD PUSH1 0x40 MLOAD SWAP1 DUP2 ADD PUSH1 0x40 MSTORE DUP1 SWAP3 SWAP2 SWAP1 DUP2 DUP2 MSTORE PUSH1 0x20 ADD DUP3 DUP1 SLOAD PUSH2 0x148 SWAP1 PUSH2 0x3F5 JUMP JUMPDEST DUP1 ISZERO PUSH2 0x195 JUMPI DUP1 PUSH1 0x1F LT PUSH2 0x16A JUMPI PUSH2 0x100 DUP1 DUP4 SLOAD DIV MUL DUP4 MSTORE SWAP2 PUSH1 0x20 ADD SWAP2 PUSH2 0x195 JUMP JUMPDEST DUP3 ADD SWAP2 SWAP1 PUSH1 0x0 MSTORE PUSH1 0x20 PUSH1 0x0 KECCAK256 SWAP1 JUMPDEST DUP2 SLOAD DUP2 MSTORE SWAP1 PUSH1 0x1 ADD SWAP1 PUSH1 0x20 ADD DUP1 DUP4 GT PUSH2 0x178 JUMPI DUP3 SWAP1 SUB PUSH1 0x1F AND DUP3 ADD SWAP2 JUMPDEST POP POP POP POP POP SWAP1 POP DUP3 JUMP JUMPDEST PUSH2 0x1AA DUP2 PUSH1 0x5 PUSH2 0x42F JUMP JUMPDEST PUSH1 0x0 SSTORE POP JUMP JUMPDEST PUSH1 0x40 DUP1 MLOAD DUP1 DUP3 ADD SWAP1 SWAP2 MSTORE DUP2 DUP2 MSTORE PUSH1 0x20 DUP2 ADD DUP4 DUP2 MSTORE PUSH1 0x1 DUP1 SLOAD DUP1 DUP3 ADD DUP3 SSTORE PUSH1 0x0 SWAP2 SWAP1 SWAP2 MSTORE DUP3 MLOAD PUSH1 0x2 SWAP1 SWAP2 MUL PUSH32 0xB10E2D527612073B26EECDFD717E6A320CF44B4AFAC2B0732D9FCBE2B7FA0CF6 DUP2 ADD SWAP2 DUP3 SSTORE SWAP2 MLOAD SWAP1 SWAP2 PUSH32 0xB10E2D527612073B26EECDFD717E6A320CF44B4AFAC2B0732D9FCBE2B7FA0CF7 ADD SWAP1 PUSH2 0x231 SWAP1 DUP3 PUSH2 0x4A7 JUMP JUMPDEST POP POP POP DUP1 PUSH1 0x2 DUP4 PUSH1 0x40 MLOAD PUSH2 0x245 SWAP2 SWAP1 PUSH2 0x567 JUMP JUMPDEST SWAP1 DUP2 MSTORE PUSH1 0x40 MLOAD SWAP1 DUP2 SWAP1 SUB PUSH1 0x20 ADD SWAP1 KECCAK256 SSTORE POP POP JUMP JUMPDEST PUSH1 0x0 PUSH1 0x20 DUP3 DUP5 SUB SLT ISZERO PUSH2 0x26B JUMPI PUSH1 0x0 DUP1 REVERT JUMPDEST POP CALLDATALOAD SWAP2 SWAP1 POP JUMP JUMPDEST PUSH1 0x0 JUMPDEST DUP4 DUP2 LT ISZERO PUSH2 0x28D JUMPI DUP2 DUP2 ADD MLOAD DUP4 DUP3 ADD MSTORE PUSH1 0x20 ADD PUSH2 0x275 JUMP JUMPDEST POP POP PUSH1 0x0 SWAP2 ADD MSTORE JUMP JUMPDEST DUP3 DUP2 MSTORE PUSH1 0x40 PUSH1 0x20 DUP3 ADD MSTORE PUSH1 0x0 DUP3 MLOAD DUP1 PUSH1 0x40 DUP5 ADD MSTORE PUSH2 0x2BB DUP2 PUSH1 0x60 DUP6 ADD PUSH1 0x20 DUP8 ADD PUSH2 0x272 JUMP JUMPDEST PUSH1 0x1F ADD PUSH1 0x1F NOT AND SWAP2 SWAP1 SWAP2 ADD PUSH1 0x60 ADD SWAP4 SWAP3 POP POP POP JUMP JUMPDEST PUSH4 0x4E487B71 PUSH1 0xE0 SHL PUSH1 0x0 MSTORE PUSH1 0x41 PUSH1 0x4 MSTORE PUSH1 0x24 PUSH1 0x0 REVERT JUMPDEST PUSH1 0x0 DUP3 PUSH1 0x1F DUP4 ADD SLT PUSH2 0x2F7 JUMPI PUSH1 0x0 DUP1 REVERT JUMPDEST DUP2 CALLDATALOAD PUSH8 0xFFFFFFFFFFFFFFFF DUP1 DUP3 GT ISZERO PUSH2 0x312 JUMPI PUSH2 0x312 PUSH2 0x2D0 JUMP JUMPDEST PUSH1 0x40 MLOAD PUSH1 0x1F DUP4 ADD PUSH1 0x1F NOT SWAP1 DUP2 AND PUSH1 0x3F ADD AND DUP2 ADD SWAP1 DUP3 DUP3 GT DUP2 DUP4 LT OR ISZERO PUSH2 0x33A JUMPI PUSH2 0x33A PUSH2 0x2D0 JUMP JUMPDEST DUP2 PUSH1 0x40 MSTORE DUP4 DUP2 MSTORE DUP7 PUSH1 0x20 DUP6 DUP9 ADD ADD GT ISZERO PUSH2 0x353 JUMPI PUSH1 0x0 DUP1 REVERT JUMPDEST DUP4 PUSH1 0x20 DUP8 ADD PUSH1 0x20 DUP4 ADD CALLDATACOPY PUSH1 0x0 PUSH1 0x20 DUP6 DUP4 ADD ADD MSTORE DUP1 SWAP5 POP POP POP POP POP SWAP3 SWAP2 POP POP JUMP JUMPDEST PUSH1 0x0 DUP1 PUSH1 0x40 DUP4 DUP6 SUB SLT ISZERO PUSH2 0x386 JUMPI PUSH1 0x0 DUP1 REVERT JUMPDEST DUP3 CALLDATALOAD PUSH8 0xFFFFFFFFFFFFFFFF DUP2 GT ISZERO PUSH2 0x39D JUMPI PUSH1 0x0 DUP1 REVERT JUMPDEST PUSH2 0x3A9 DUP6 DUP3 DUP7 ADD PUSH2 0x2E6 JUMP JUMPDEST SWAP6 PUSH1 0x20 SWAP5 SWAP1 SWAP5 ADD CALLDATALOAD SWAP5 POP POP POP POP JUMP JUMPDEST PUSH1 0x0 PUSH1 0x20 DUP3 DUP5 SUB SLT ISZERO PUSH2 0x3CA JUMPI PUSH1 0x0 DUP1 REVERT JUMPDEST DUP2 CALLDATALOAD PUSH8 0xFFFFFFFFFFFFFFFF DUP2 GT ISZERO PUSH2 0x3E1 JUMPI PUSH1 0x0 DUP1 REVERT JUMPDEST PUSH2 0x3ED DUP5 DUP3 DUP6 ADD PUSH2 0x2E6 JUMP JUMPDEST SWAP5 SWAP4 POP POP POP POP JUMP JUMPDEST PUSH1 0x1 DUP2 DUP2 SHR SWAP1 DUP3 AND DUP1 PUSH2 0x409 JUMPI PUSH1 0x7F DUP3 AND SWAP2 POP JUMPDEST PUSH1 0x20 DUP3 LT DUP2 SUB PUSH2 0x429 JUMPI PUSH4 0x4E487B71 PUSH1 0xE0 SHL PUSH1 0x0 MSTORE PUSH1 0x22 PUSH1 0x4 MSTORE PUSH1 0x24 PUSH1 0x0 REVERT JUMPDEST POP SWAP2 SWAP1 POP JUMP JUMPDEST DUP1 DUP3 ADD DUP1 DUP3 GT ISZERO PUSH2 0x450 JUMPI PUSH4 0x4E487B71 PUSH1 0xE0 SHL PUSH1 0x0 MSTORE PUSH1 0x11 PUSH1 0x4 MSTORE PUSH1 0x24 PUSH1 0x0 REVERT JUMPDEST SWAP3 SWAP2 POP POP JUMP JUMPDEST PUSH1 0x1F DUP3 GT ISZERO PUSH2 0x4A2 JUMPI PUSH1 0x0 DUP2 PUSH1 0x0 MSTORE PUSH1 0x20 PUSH1 0x0 KECCAK256 PUSH1 0x1F DUP6 ADD PUSH1 0x5 SHR DUP2 ADD PUSH1 0x20 DUP7 LT ISZERO PUSH2 0x47F JUMPI POP DUP1 JUMPDEST PUSH1 0x1F DUP6 ADD PUSH1 0x5 SHR DUP3 ADD SWAP2 POP JUMPDEST DUP2 DUP2 LT ISZERO PUSH2 0x49E JUMPI DUP3 DUP2 SSTORE PUSH1 0x1 ADD PUSH2 0x48B JUMP JUMPDEST POP POP POP JUMPDEST POP POP POP JUMP JUMPDEST DUP2 MLOAD PUSH8 0xFFFFFFFFFFFFFFFF DUP2 GT ISZERO PUSH2 0x4C1 JUMPI PUSH2 0x4C1 PUSH2 0x2D0 JUMP JUMPDEST PUSH2 0x4D5 DUP2 PUSH2 0x4CF DUP5 SLOAD PUSH2 0x3F5 JUMP JUMPDEST DUP5 PUSH2 0x456 JUMP JUMPDEST PUSH1 0x20 DUP1 PUSH1 0x1F DUP4 GT PUSH1 0x1 DUP2 EQ PUSH2 0x50A JUMPI PUSH1 0x0 DUP5 ISZERO PUSH2 0x4F2 JUMPI POP DUP6 DUP4 ADD MLOAD JUMPDEST PUSH1 0x0 NOT PUSH1 0x3 DUP7 SWAP1 SHL SHR NOT AND PUSH1 0x1 DUP6 SWAP1 SHL OR DUP6 SSTORE PUSH2 0x49E JUMP JUMPDEST PUSH1 0x0 DUP6 DUP2 MSTORE PUSH1 0x20 DUP2 KECCAK256 PUSH1 0x1F NOT DUP7 AND SWAP2 JUMPDEST DUP3 DUP2 LT ISZERO PUSH2 0x539 JUMPI DUP9 DUP7 ADD MLOAD DUP3 SSTORE SWAP5 DUP5 ADD SWAP5 PUSH1 0x1 SWAP1 SWAP2 ADD SWAP1 DUP5 ADD PUSH2 0x51A JUMP JUMPDEST POP DUP6 DUP3 LT ISZERO PUSH2 0x557 JUMPI DUP8 DUP6 ADD MLOAD PUSH1 0x0 NOT PUSH1 0x3 DUP9 SWAP1 SHL PUSH1 0xF8 AND SHR NOT AND DUP2 SSTORE JUMPDEST POP POP POP POP POP PUSH1 0x1 SWAP1 DUP2 SHL ADD SWAP1 SSTORE POP JUMP JUMPDEST PUSH1 0x0 DUP3 MLOAD PUSH2 0x579 DUP2 DUP5 PUSH1 0x20 DUP8 ADD PUSH2 0x272 JUMP JUMPDEST SWAP2 SWAP1 SWAP2 ADD SWAP3 SWAP2 POP POP JUMP INVALID LOG2 PUSH5 0x6970667358 0x22 SLT KECCAK256 ISZERO GAS DUP7 0xF7 0xC6 PUSH10 0x65B8E014F3509412A4E0 0xD8 0xB9 SHR SHR 0xE9 0xD0 0xD2 0xC0 0xF6 MOD 0xEA ADD STOP 0xB3 0xB3 DUP6 PUSH5 0x736F6C6343 STOP ADDMOD XOR STOP CALLER "
				},
				"gasEstimates": {
					"creation": {
						"codeDepositCost": "293000",
						"executionCost": "331",
						"totalCost": "293331"
					},
					"external": {
						"addPerson(string,uint256)": "infinite",
						"listOfPeople(uint256)": "infinite",
						"nameToFavoriteNumber(string)": "infinite",
						"retrieve()": "2248",
						"store(uint256)": "22423"
					}
				},
				"methodIdentifiers": {
					"addPerson(string,uint256)": "6f760f41",
					"listOfPeople(uint256)": "2ebce631",
					"nameToFavoriteNumber(string)": "8bab8dd5",
					"retrieve()": "2e64cec1",
					"store(uint256)": "6057361d"
				}
			},
			"storageLayout": {
				"storage": [
					{
						"astId": 3,
						"contract": "Smart Contracts/addFiveStorage.sol:AddFiveStorage",
						"label": "myFavoriteNumber",
						"offset": 0,
						"slot": "0",
						"type": "t_uint256"
					},
					{
						"astId": 12,
						"contract": "Smart Contracts/addFiveStorage.sol:AddFiveStorage",
						"label": "listOfPeople",
						"offset": 0,
						"slot": "1",
						"type": "t_array(t_struct(Person)8_storage)dyn_storage"
					},
					{
						"astId": 16,
						"contract": "Smart Contracts/addFiveStorage.sol:AddFiveStorage",
						"label": "nameToFavoriteNumber",
						"offset": 0,
						"slot": "2",
						"type": "t_mapping(t_string_memory_ptr,t_uint256)"
					}
				],
				"types": {
					"t_array(t_struct(Person)8_storage)dyn_storage": {
						"base": "t_struct(Person)8_storage",
						"encoding": "dynamic_array",
						"label": "struct SimpleStorage.Person[]",
						"numberOfBytes": "32"
					},
					"t_mapping(t_string_memory_ptr,t_uint256)": {
						"encoding": "mapping",
						"key": "t_string_memory_ptr",
						"label": "mapping(string => uint256)",
						"numberOfBytes": "32",
						"value": "t_uint256"
					},
					"t_string_memory_ptr": {
						"encoding": "bytes",
						"label": "string",
						"numberOfBytes": "32"
					},
					"t_string_storage": {
						"encoding": "bytes",
						"label": "string",
						"numberOfBytes": "32"
					},
					"t_struct(Person)8_storage": {
						"encoding": "inplace",
						"label": "struct SimpleStorage.Person",
						"members": [
							{
								"astId": 5,
								"contract": "Smart Contracts/addFiveStorage.sol:AddFiveStorage",
								"label": "favoriteNumber",
								"offset": 0,
								"slot": "0",
								"type": "t_uint256"
							},
							{
								"astId": 7,
								"contract": "Smart Contracts/addFiveStorage.sol:AddFiveStorage",
								"label": "name",
								"offset": 0,
								"slot": "1",
								"type": "t_string_storage"
							}
						],
						"numberOfBytes": "64"
					},
					"t_uint256": {
						"encoding": "inplace",
						"label": "uint256",
						"numberOfBytes": "32"
					}
				}
			},
			"userdoc": {
				"kind": "user",
				"methods": {},
				"version": 1
			}
		}
	}
}