{
	"Smart Contracts/SimpleStorage.sol": {
		"SimpleStorage": {
			"abi": [
				{
					"inputs": [
						{
							"internalType": "string",
							"name": "_name",
							"type": "string"
						},
						{
							"internalType": "uint256",
							"name": "_favoriteNumber",
							"type": "uint256"
						}
					],
					"name": "addPerson",
					"outputs": [],
					"stateMutability": "nonpayable",
					"type": "function"
				},
				{
					"inputs": [
						{
							"internalType": "uint256",
							"name": "",
							"type": "uint256"
						}
					],
					"name": "listOfPeople",
					"outputs": [
						{
							"internalType": "uint256",
							"name": "favoriteNumber",
							"type": "uint256"
						},
						{
							"internalType": "string",
							"name": "name",
							"type": "string"
						}
					],
					"stateMutability": "view",
					"type": "function"
				},
				{
					"inputs": [
						{
							"internalType": "string",
							"name": "",
							"type": "string"
						}
					],
					"name": "nameToFavoriteNumber",
					"outputs": [
						{
							"internalType": "uint256",
							"name": "",
							"type": "uint256"
						}
					],
					"stateMutability": "view",
					"type": "function"
				},
				{
					"inputs": [],
					"name": "retrieve",
					"outputs": [
						{
							"internalType": "uint256",
							"name": "",
							"type": "uint256"
						}
					],
					"stateMutability": "view",
					"type": "function"
				},
				{
					"inputs": [
						{
							"internalType": "uint256",
							"name": "_favoriteNumber",
							"type": "uint256"
						}
					],
					"name": "store",
					"outputs": [],
					"stateMutability": "nonpayable",
					"type": "function"
				}
			],
			"devdoc": {
				"kind": "dev",
				"methods": {},
				"version": 1
			},
			"evm": {
				"assembly": "    /* \"Smart Contracts/SimpleStorage.sol\":82:873  contract SimpleStorage{... */\n  mstore(0x40, 0x80)\n  callvalue\n  dup1\n  iszero\n  tag_1\n  jumpi\n  0x00\n  dup1\n  revert\ntag_1:\n  pop\n  dataSize(sub_0)\n  dup1\n  dataOffset(sub_0)\n  0x00\n  codecopy\n  0x00\n  return\nstop\n\nsub_0: assembly {\n        /* \"Smart Contracts/SimpleStorage.sol\":82:873  contract SimpleStorage{... */\n      mstore(0x40, 0x80)\n      callvalue\n      dup1\n      iszero\n      tag_1\n      jumpi\n      0x00\n      dup1\n      revert\n    tag_1:\n      pop\n      jumpi(tag_2, lt(calldatasize, 0x04))\n      shr(0xe0, calldataload(0x00))\n      dup1\n      0x2e64cec1\n      eq\n      tag_3\n      jumpi\n      dup1\n      0x2ebce631\n      eq\n      tag_4\n      jumpi\n      dup1\n      0x6057361d\n      eq\n      tag_5\n      jumpi\n      dup1\n      0x6f760f41\n      eq\n      tag_6\n      jumpi\n      dup1\n      0x8bab8dd5\n      eq\n      tag_7\n      jumpi\n    tag_2:\n      0x00\n      dup1\n      revert\n        /* \"Smart Contracts/SimpleStorage.sol\":574:664  function retrieve() public view returns(uint256){... */\n    tag_3:\n        /* \"Smart Contracts/SimpleStorage.sol\":614:621  uint256 */\n      0x00\n        /* \"Smart Contracts/SimpleStorage.sol\":640:656  myFavoriteNumber */\n      sload\n        /* \"Smart Contracts/SimpleStorage.sol\":574:664  function retrieve() public view returns(uint256){... */\n    tag_8:\n      mload(0x40)\n        /* \"#utility.yul\":160:185   */\n      swap1\n      dup2\n      mstore\n        /* \"#utility.yul\":148:150   */\n      0x20\n        /* \"#utility.yul\":133:151   */\n      add\n        /* \"Smart Contracts/SimpleStorage.sol\":574:664  function retrieve() public view returns(uint256){... */\n    tag_10:\n      mload(0x40)\n      dup1\n      swap2\n      sub\n      swap1\n      return\n        /* \"Smart Contracts/SimpleStorage.sol\":330:358  Person[] public listOfPeople */\n    tag_4:\n      tag_12\n      tag_13\n      calldatasize\n      0x04\n      tag_14\n      jump\t// in\n    tag_13:\n      tag_15\n      jump\t// in\n    tag_12:\n      mload(0x40)\n      tag_10\n      swap3\n      swap2\n      swap1\n      tag_17\n      jump\t// in\n        /* \"Smart Contracts/SimpleStorage.sol\":451:566  function store(uint256 _favoriteNumber) public virtual {... */\n    tag_5:\n      tag_18\n      tag_19\n      calldatasize\n      0x04\n      tag_14\n      jump\t// in\n    tag_19:\n        /* \"Smart Contracts/SimpleStorage.sol\":517:533  myFavoriteNumber */\n      0x00\n        /* \"Smart Contracts/SimpleStorage.sol\":517:551  myFavoriteNumber = _favoriteNumber */\n      sstore\n        /* \"Smart Contracts/SimpleStorage.sol\":451:566  function store(uint256 _favoriteNumber) public virtual {... */\n      jump\n    tag_18:\n      stop\n        /* \"Smart Contracts/SimpleStorage.sol\":672:870  function addPerson(string memory _name, uint256 _favoriteNumber) public {... */\n    tag_6:\n      tag_18\n      tag_22\n      calldatasize\n      0x04\n      tag_23\n      jump\t// in\n    tag_22:\n      tag_24\n      jump\t// in\n        /* \"Smart Contracts/SimpleStorage.sol\":387:441  mapping(string => uint256) public nameToFavoriteNumber */\n    tag_7:\n      tag_8\n      tag_26\n      calldatasize\n      0x04\n      tag_27\n      jump\t// in\n    tag_26:\n      dup1\n      mload\n      0x20\n      dup2\n      dup4\n      add\n      dup2\n      add\n      dup1\n      mload\n      0x02\n      dup3\n      mstore\n      swap3\n      dup3\n      add\n      swap2\n      swap1\n      swap4\n      add\n      keccak256\n      swap2\n      mstore\n      sload\n      dup2\n      jump\n        /* \"Smart Contracts/SimpleStorage.sol\":330:358  Person[] public listOfPeople */\n    tag_15:\n      0x01\n      dup2\n      dup2\n      sload\n      dup2\n      lt\n      tag_31\n      jumpi\n      0x00\n      dup1\n      revert\n    tag_31:\n      0x00\n      swap2\n      dup3\n      mstore\n      0x20\n      swap1\n      swap2\n      keccak256\n      0x02\n      swap1\n      swap2\n      mul\n      add\n      dup1\n      sload\n      0x01\n      dup3\n      add\n      dup1\n      sload\n      swap2\n      swap4\n      pop\n      swap1\n      tag_33\n      swap1\n      tag_34\n      jump\t// in\n    tag_33:\n      dup1\n      0x1f\n      add\n      0x20\n      dup1\n      swap2\n      div\n      mul\n      0x20\n      add\n      mload(0x40)\n      swap1\n      dup2\n      add\n      0x40\n      mstore\n      dup1\n      swap3\n      swap2\n      swap1\n      dup2\n      dup2\n      mstore\n      0x20\n      add\n      dup3\n      dup1\n      sload\n      tag_35\n      swap1\n      tag_34\n      jump\t// in\n    tag_35:\n      dup1\n      iszero\n      tag_36\n      jumpi\n      dup1\n      0x1f\n      lt\n      tag_37\n      jumpi\n      0x0100\n      dup1\n      dup4\n      sload\n      div\n      mul\n      dup4\n      mstore\n      swap2\n      0x20\n      add\n      swap2\n      jump(tag_36)\n    tag_37:\n      dup3\n      add\n      swap2\n      swap1\n      0x00\n      mstore\n      keccak256(0x00, 0x20)\n      swap1\n    tag_38:\n      dup2\n      sload\n      dup2\n      mstore\n      swap1\n      0x01\n      add\n      swap1\n      0x20\n      add\n      dup1\n      dup4\n      gt\n      tag_38\n      jumpi\n      dup3\n      swap1\n      sub\n      0x1f\n      and\n      dup3\n      add\n      swap2\n    tag_36:\n      pop\n      pop\n      pop\n      pop\n      pop\n      swap1\n      pop\n      dup3\n      jump\t// out\n        /* \"Smart Contracts/SimpleStorage.sol\":672:870  function addPerson(string memory _name, uint256 _favoriteNumber) public {... */\n    tag_24:\n        /* \"Smart Contracts/SimpleStorage.sol\":774:804  Person(_favoriteNumber, _name) */\n      0x40\n      dup1\n      mload\n      dup1\n      dup3\n      add\n      swap1\n      swap2\n      mstore\n      dup2\n      dup2\n      mstore\n      0x20\n      dup2\n      add\n      dup4\n      dup2\n      mstore\n        /* \"Smart Contracts/SimpleStorage.sol\":755:767  listOfPeople */\n      0x01\n        /* \"Smart Contracts/SimpleStorage.sol\":755:806  listOfPeople.push( Person(_favoriteNumber, _name) ) */\n      dup1\n      sload\n      dup1\n      dup3\n      add\n      dup3\n      sstore\n      0x00\n      swap2\n      swap1\n      swap2\n      mstore\n      dup3\n      mload\n      0x02\n      swap1\n      swap2\n      mul\n      0xb10e2d527612073b26eecdfd717e6a320cf44b4afac2b0732d9fcbe2b7fa0cf6\n      dup2\n      add\n      swap2\n      dup3\n      sstore\n      swap2\n      mload\n      swap1\n      swap2\n      0xb10e2d527612073b26eecdfd717e6a320cf44b4afac2b0732d9fcbe2b7fa0cf7\n      add\n      swap1\n      tag_42\n      swap1\n      dup3\n      tag_43\n      jump\t// in\n    tag_42:\n      pop\n      pop\n      pop\n        /* \"Smart Contracts/SimpleStorage.sol\":847:862  _favoriteNumber */\n      dup1\n        /* \"Smart Contracts/SimpleStorage.sol\":817:837  nameToFavoriteNumber */\n      0x02\n        /* \"Smart Contracts/SimpleStorage.sol\":838:843  _name */\n      dup4\n        /* \"Smart Contracts/SimpleStorage.sol\":817:844  nameToFavoriteNumber[_name] */\n      mload(0x40)\n      tag_44\n      swap2\n      swap1\n      tag_45\n      jump\t// in\n    tag_44:\n      swap1\n      dup2\n      mstore\n      mload(0x40)\n      swap1\n      dup2\n      swap1\n      sub\n      0x20\n      add\n      swap1\n      keccak256\n        /* \"Smart Contracts/SimpleStorage.sol\":817:862  nameToFavoriteNumber[_name] = _favoriteNumber */\n      sstore\n      pop\n      pop\n        /* \"Smart Contracts/SimpleStorage.sol\":672:870  function addPerson(string memory _name, uint256 _favoriteNumber) public {... */\n      jump\t// out\n        /* \"#utility.yul\":196:376   */\n    tag_14:\n        /* \"#utility.yul\":255:261   */\n      0x00\n        /* \"#utility.yul\":308:310   */\n      0x20\n        /* \"#utility.yul\":296:305   */\n      dup3\n        /* \"#utility.yul\":287:294   */\n      dup5\n        /* \"#utility.yul\":283:306   */\n      sub\n        /* \"#utility.yul\":279:311   */\n      slt\n        /* \"#utility.yul\":276:328   */\n      iszero\n      tag_55\n      jumpi\n        /* \"#utility.yul\":324:325   */\n      0x00\n        /* \"#utility.yul\":321:322   */\n      dup1\n        /* \"#utility.yul\":314:326   */\n      revert\n        /* \"#utility.yul\":276:328   */\n    tag_55:\n      pop\n        /* \"#utility.yul\":347:370   */\n      calldataload\n      swap2\n        /* \"#utility.yul\":196:376   */\n      swap1\n      pop\n      jump\t// out\n        /* \"#utility.yul\":381:631   */\n    tag_46:\n        /* \"#utility.yul\":466:467   */\n      0x00\n        /* \"#utility.yul\":476:589   */\n    tag_57:\n        /* \"#utility.yul\":490:496   */\n      dup4\n        /* \"#utility.yul\":487:488   */\n      dup2\n        /* \"#utility.yul\":484:497   */\n      lt\n        /* \"#utility.yul\":476:589   */\n      iszero\n      tag_59\n      jumpi\n        /* \"#utility.yul\":566:577   */\n      dup2\n      dup2\n      add\n        /* \"#utility.yul\":560:578   */\n      mload\n        /* \"#utility.yul\":547:558   */\n      dup4\n      dup3\n      add\n        /* \"#utility.yul\":540:579   */\n      mstore\n        /* \"#utility.yul\":512:514   */\n      0x20\n        /* \"#utility.yul\":505:515   */\n      add\n        /* \"#utility.yul\":476:589   */\n      jump(tag_57)\n    tag_59:\n      pop\n      pop\n        /* \"#utility.yul\":623:624   */\n      0x00\n        /* \"#utility.yul\":605:621   */\n      swap2\n      add\n        /* \"#utility.yul\":598:625   */\n      mstore\n        /* \"#utility.yul\":381:631   */\n      jump\t// out\n        /* \"#utility.yul\":636:1103   */\n    tag_17:\n        /* \"#utility.yul\":813:819   */\n      dup3\n        /* \"#utility.yul\":802:811   */\n      dup2\n        /* \"#utility.yul\":795:820   */\n      mstore\n        /* \"#utility.yul\":856:858   */\n      0x40\n        /* \"#utility.yul\":851:853   */\n      0x20\n        /* \"#utility.yul\":840:849   */\n      dup3\n        /* \"#utility.yul\":836:854   */\n      add\n        /* \"#utility.yul\":829:859   */\n      mstore\n        /* \"#utility.yul\":776:780   */\n      0x00\n        /* \"#utility.yul\":888:894   */\n      dup3\n        /* \"#utility.yul\":882:895   */\n      mload\n        /* \"#utility.yul\":931:937   */\n      dup1\n        /* \"#utility.yul\":926:928   */\n      0x40\n        /* \"#utility.yul\":915:924   */\n      dup5\n        /* \"#utility.yul\":911:929   */\n      add\n        /* \"#utility.yul\":904:938   */\n      mstore\n        /* \"#utility.yul\":947:1026   */\n      tag_61\n        /* \"#utility.yul\":1019:1025   */\n      dup2\n        /* \"#utility.yul\":1014:1016   */\n      0x60\n        /* \"#utility.yul\":1003:1012   */\n      dup6\n        /* \"#utility.yul\":999:1017   */\n      add\n        /* \"#utility.yul\":994:996   */\n      0x20\n        /* \"#utility.yul\":986:992   */\n      dup8\n        /* \"#utility.yul\":982:997   */\n      add\n        /* \"#utility.yul\":947:1026   */\n      tag_46\n      jump\t// in\n    tag_61:\n        /* \"#utility.yul\":1087:1089   */\n      0x1f\n        /* \"#utility.yul\":1066:1081   */\n      add\n      not(0x1f)\n        /* \"#utility.yul\":1062:1091   */\n      and\n        /* \"#utility.yul\":1047:1092   */\n      swap2\n      swap1\n      swap2\n      add\n        /* \"#utility.yul\":1094:1096   */\n      0x60\n        /* \"#utility.yul\":1043:1097   */\n      add\n      swap4\n        /* \"#utility.yul\":636:1103   */\n      swap3\n      pop\n      pop\n      pop\n      jump\t// out\n        /* \"#utility.yul\":1108:1235   */\n    tag_47:\n        /* \"#utility.yul\":1169:1179   */\n      0x4e487b71\n        /* \"#utility.yul\":1164:1167   */\n      0xe0\n        /* \"#utility.yul\":1160:1180   */\n      shl\n        /* \"#utility.yul\":1157:1158   */\n      0x00\n        /* \"#utility.yul\":1150:1181   */\n      mstore\n        /* \"#utility.yul\":1200:1204   */\n      0x41\n        /* \"#utility.yul\":1197:1198   */\n      0x04\n        /* \"#utility.yul\":1190:1205   */\n      mstore\n        /* \"#utility.yul\":1224:1228   */\n      0x24\n        /* \"#utility.yul\":1221:1222   */\n      0x00\n        /* \"#utility.yul\":1214:1229   */\n      revert\n        /* \"#utility.yul\":1240:1959   */\n    tag_48:\n        /* \"#utility.yul\":1283:1288   */\n      0x00\n        /* \"#utility.yul\":1336:1339   */\n      dup3\n        /* \"#utility.yul\":1329:1333   */\n      0x1f\n        /* \"#utility.yul\":1321:1327   */\n      dup4\n        /* \"#utility.yul\":1317:1334   */\n      add\n        /* \"#utility.yul\":1313:1340   */\n      slt\n        /* \"#utility.yul\":1303:1358   */\n      tag_64\n      jumpi\n        /* \"#utility.yul\":1354:1355   */\n      0x00\n        /* \"#utility.yul\":1351:1352   */\n      dup1\n        /* \"#utility.yul\":1344:1356   */\n      revert\n        /* \"#utility.yul\":1303:1358   */\n    tag_64:\n        /* \"#utility.yul\":1390:1396   */\n      dup2\n        /* \"#utility.yul\":1377:1397   */\n      calldataload\n        /* \"#utility.yul\":1416:1434   */\n      0xffffffffffffffff\n        /* \"#utility.yul\":1453:1455   */\n      dup1\n        /* \"#utility.yul\":1449:1451   */\n      dup3\n        /* \"#utility.yul\":1446:1456   */\n      gt\n        /* \"#utility.yul\":1443:1479   */\n      iszero\n      tag_66\n      jumpi\n        /* \"#utility.yul\":1459:1477   */\n      tag_66\n      tag_47\n      jump\t// in\n    tag_66:\n        /* \"#utility.yul\":1534:1536   */\n      0x40\n        /* \"#utility.yul\":1528:1537   */\n      mload\n        /* \"#utility.yul\":1502:1504   */\n      0x1f\n        /* \"#utility.yul\":1588:1601   */\n      dup4\n      add\n      not(0x1f)\n        /* \"#utility.yul\":1584:1606   */\n      swap1\n      dup2\n      and\n        /* \"#utility.yul\":1608:1610   */\n      0x3f\n        /* \"#utility.yul\":1580:1611   */\n      add\n        /* \"#utility.yul\":1576:1616   */\n      and\n        /* \"#utility.yul\":1564:1617   */\n      dup2\n      add\n      swap1\n        /* \"#utility.yul\":1632:1650   */\n      dup3\n      dup3\n      gt\n        /* \"#utility.yul\":1652:1674   */\n      dup2\n      dup4\n      lt\n        /* \"#utility.yul\":1629:1675   */\n      or\n        /* \"#utility.yul\":1626:1698   */\n      iszero\n      tag_68\n      jumpi\n        /* \"#utility.yul\":1678:1696   */\n      tag_68\n      tag_47\n      jump\t// in\n    tag_68:\n        /* \"#utility.yul\":1718:1728   */\n      dup2\n        /* \"#utility.yul\":1714:1716   */\n      0x40\n        /* \"#utility.yul\":1707:1729   */\n      mstore\n        /* \"#utility.yul\":1753:1755   */\n      dup4\n        /* \"#utility.yul\":1745:1751   */\n      dup2\n        /* \"#utility.yul\":1738:1756   */\n      mstore\n        /* \"#utility.yul\":1799:1802   */\n      dup7\n        /* \"#utility.yul\":1792:1796   */\n      0x20\n        /* \"#utility.yul\":1787:1789   */\n      dup6\n        /* \"#utility.yul\":1779:1785   */\n      dup9\n        /* \"#utility.yul\":1775:1790   */\n      add\n        /* \"#utility.yul\":1771:1797   */\n      add\n        /* \"#utility.yul\":1768:1803   */\n      gt\n        /* \"#utility.yul\":1765:1820   */\n      iszero\n      tag_69\n      jumpi\n        /* \"#utility.yul\":1816:1817   */\n      0x00\n        /* \"#utility.yul\":1813:1814   */\n      dup1\n        /* \"#utility.yul\":1806:1818   */\n      revert\n        /* \"#utility.yul\":1765:1820   */\n    tag_69:\n        /* \"#utility.yul\":1880:1882   */\n      dup4\n        /* \"#utility.yul\":1873:1877   */\n      0x20\n        /* \"#utility.yul\":1865:1871   */\n      dup8\n        /* \"#utility.yul\":1861:1878   */\n      add\n        /* \"#utility.yul\":1854:1858   */\n      0x20\n        /* \"#utility.yul\":1846:1852   */\n      dup4\n        /* \"#utility.yul\":1842:1859   */\n      add\n        /* \"#utility.yul\":1829:1883   */\n      calldatacopy\n        /* \"#utility.yul\":1927:1928   */\n      0x00\n        /* \"#utility.yul\":1920:1924   */\n      0x20\n        /* \"#utility.yul\":1915:1917   */\n      dup6\n        /* \"#utility.yul\":1907:1913   */\n      dup4\n        /* \"#utility.yul\":1903:1918   */\n      add\n        /* \"#utility.yul\":1899:1925   */\n      add\n        /* \"#utility.yul\":1892:1929   */\n      mstore\n        /* \"#utility.yul\":1947:1953   */\n      dup1\n        /* \"#utility.yul\":1938:1953   */\n      swap5\n      pop\n      pop\n      pop\n      pop\n      pop\n        /* \"#utility.yul\":1240:1959   */\n      swap3\n      swap2\n      pop\n      pop\n      jump\t// out\n        /* \"#utility.yul\":1964:2354   */\n    tag_23:\n        /* \"#utility.yul\":2042:2048   */\n      0x00\n        /* \"#utility.yul\":2050:2056   */\n      dup1\n        /* \"#utility.yul\":2103:2105   */\n      0x40\n        /* \"#utility.yul\":2091:2100   */\n      dup4\n        /* \"#utility.yul\":2082:2089   */\n      dup6\n        /* \"#utility.yul\":2078:2101   */\n      sub\n        /* \"#utility.yul\":2074:2106   */\n      slt\n        /* \"#utility.yul\":2071:2123   */\n      iszero\n      tag_71\n      jumpi\n        /* \"#utility.yul\":2119:2120   */\n      0x00\n        /* \"#utility.yul\":2116:2117   */\n      dup1\n        /* \"#utility.yul\":2109:2121   */\n      revert\n        /* \"#utility.yul\":2071:2123   */\n    tag_71:\n        /* \"#utility.yul\":2159:2168   */\n      dup3\n        /* \"#utility.yul\":2146:2169   */\n      calldataload\n        /* \"#utility.yul\":2192:2210   */\n      0xffffffffffffffff\n        /* \"#utility.yul\":2184:2190   */\n      dup2\n        /* \"#utility.yul\":2181:2211   */\n      gt\n        /* \"#utility.yul\":2178:2228   */\n      iszero\n      tag_72\n      jumpi\n        /* \"#utility.yul\":2224:2225   */\n      0x00\n        /* \"#utility.yul\":2221:2222   */\n      dup1\n        /* \"#utility.yul\":2214:2226   */\n      revert\n        /* \"#utility.yul\":2178:2228   */\n    tag_72:\n        /* \"#utility.yul\":2247:2297   */\n      tag_73\n        /* \"#utility.yul\":2289:2296   */\n      dup6\n        /* \"#utility.yul\":2280:2286   */\n      dup3\n        /* \"#utility.yul\":2269:2278   */\n      dup7\n        /* \"#utility.yul\":2265:2287   */\n      add\n        /* \"#utility.yul\":2247:2297   */\n      tag_48\n      jump\t// in\n    tag_73:\n        /* \"#utility.yul\":2237:2297   */\n      swap6\n        /* \"#utility.yul\":2344:2346   */\n      0x20\n        /* \"#utility.yul\":2329:2347   */\n      swap5\n      swap1\n      swap5\n      add\n        /* \"#utility.yul\":2316:2348   */\n      calldataload\n      swap5\n      pop\n      pop\n      pop\n      pop\n        /* \"#utility.yul\":1964:2354   */\n      jump\t// out\n        /* \"#utility.yul\":2359:2681   */\n    tag_27:\n        /* \"#utility.yul\":2428:2434   */\n      0x00\n        /* \"#utility.yul\":2481:2483   */\n      0x20\n        /* \"#utility.yul\":2469:2478   */\n      dup3\n        /* \"#utility.yul\":2460:2467   */\n      dup5\n        /* \"#utility.yul\":2456:2479   */\n      sub\n        /* \"#utility.yul\":2452:2484   */\n      slt\n        /* \"#utility.yul\":2449:2501   */\n      iszero\n      tag_75\n      jumpi\n        /* \"#utility.yul\":2497:2498   */\n      0x00\n        /* \"#utility.yul\":2494:2495   */\n      dup1\n        /* \"#utility.yul\":2487:2499   */\n      revert\n        /* \"#utility.yul\":2449:2501   */\n    tag_75:\n        /* \"#utility.yul\":2537:2546   */\n      dup2\n        /* \"#utility.yul\":2524:2547   */\n      calldataload\n        /* \"#utility.yul\":2570:2588   */\n      0xffffffffffffffff\n        /* \"#utility.yul\":2562:2568   */\n      dup2\n        /* \"#utility.yul\":2559:2589   */\n      gt\n        /* \"#utility.yul\":2556:2606   */\n      iszero\n      tag_76\n      jumpi\n        /* \"#utility.yul\":2602:2603   */\n      0x00\n        /* \"#utility.yul\":2599:2600   */\n      dup1\n        /* \"#utility.yul\":2592:2604   */\n      revert\n        /* \"#utility.yul\":2556:2606   */\n    tag_76:\n        /* \"#utility.yul\":2625:2675   */\n      tag_77\n        /* \"#utility.yul\":2667:2674   */\n      dup5\n        /* \"#utility.yul\":2658:2664   */\n      dup3\n        /* \"#utility.yul\":2647:2656   */\n      dup6\n        /* \"#utility.yul\":2643:2665   */\n      add\n        /* \"#utility.yul\":2625:2675   */\n      tag_48\n      jump\t// in\n    tag_77:\n        /* \"#utility.yul\":2615:2675   */\n      swap5\n        /* \"#utility.yul\":2359:2681   */\n      swap4\n      pop\n      pop\n      pop\n      pop\n      jump\t// out\n        /* \"#utility.yul\":2686:3066   */\n    tag_34:\n        /* \"#utility.yul\":2765:2766   */\n      0x01\n        /* \"#utility.yul\":2761:2773   */\n      dup2\n      dup2\n      shr\n      swap1\n        /* \"#utility.yul\":2808:2820   */\n      dup3\n      and\n      dup1\n        /* \"#utility.yul\":2829:2890   */\n      tag_79\n      jumpi\n        /* \"#utility.yul\":2883:2887   */\n      0x7f\n        /* \"#utility.yul\":2875:2881   */\n      dup3\n        /* \"#utility.yul\":2871:2888   */\n      and\n        /* \"#utility.yul\":2861:2888   */\n      swap2\n      pop\n        /* \"#utility.yul\":2829:2890   */\n    tag_79:\n        /* \"#utility.yul\":2936:2938   */\n      0x20\n        /* \"#utility.yul\":2928:2934   */\n      dup3\n        /* \"#utility.yul\":2925:2939   */\n      lt\n        /* \"#utility.yul\":2905:2923   */\n      dup2\n        /* \"#utility.yul\":2902:2940   */\n      sub\n        /* \"#utility.yul\":2899:3060   */\n      tag_80\n      jumpi\n        /* \"#utility.yul\":2982:2992   */\n      0x4e487b71\n        /* \"#utility.yul\":2977:2980   */\n      0xe0\n        /* \"#utility.yul\":2973:2993   */\n      shl\n        /* \"#utility.yul\":2970:2971   */\n      0x00\n        /* \"#utility.yul\":2963:2994   */\n      mstore\n        /* \"#utility.yul\":3017:3021   */\n      0x22\n        /* \"#utility.yul\":3014:3015   */\n      0x04\n        /* \"#utility.yul\":3007:3022   */\n      mstore\n        /* \"#utility.yul\":3045:3049   */\n      0x24\n        /* \"#utility.yul\":3042:3043   */\n      0x00\n        /* \"#utility.yul\":3035:3050   */\n      revert\n        /* \"#utility.yul\":2899:3060   */\n    tag_80:\n      pop\n        /* \"#utility.yul\":2686:3066   */\n      swap2\n      swap1\n      pop\n      jump\t// out\n        /* \"#utility.yul\":3197:3740   */\n    tag_50:\n        /* \"#utility.yul\":3299:3301   */\n      0x1f\n        /* \"#utility.yul\":3294:3297   */\n      dup3\n        /* \"#utility.yul\":3291:3302   */\n      gt\n        /* \"#utility.yul\":3288:3734   */\n      iszero\n      tag_83\n      jumpi\n        /* \"#utility.yul\":3335:3336   */\n      0x00\n        /* \"#utility.yul\":3359:3364   */\n      dup2\n        /* \"#utility.yul\":3356:3357   */\n      0x00\n        /* \"#utility.yul\":3349:3365   */\n      mstore\n        /* \"#utility.yul\":3403:3407   */\n      0x20\n        /* \"#utility.yul\":3400:3401   */\n      0x00\n        /* \"#utility.yul\":3390:3408   */\n      keccak256\n        /* \"#utility.yul\":3473:3475   */\n      0x1f\n        /* \"#utility.yul\":3461:3471   */\n      dup6\n        /* \"#utility.yul\":3457:3476   */\n      add\n        /* \"#utility.yul\":3454:3455   */\n      0x05\n        /* \"#utility.yul\":3450:3477   */\n      shr\n        /* \"#utility.yul\":3444:3448   */\n      dup2\n        /* \"#utility.yul\":3440:3478   */\n      add\n        /* \"#utility.yul\":3509:3513   */\n      0x20\n        /* \"#utility.yul\":3497:3507   */\n      dup7\n        /* \"#utility.yul\":3494:3514   */\n      lt\n        /* \"#utility.yul\":3491:3538   */\n      iszero\n      tag_84\n      jumpi\n      pop\n        /* \"#utility.yul\":3532:3536   */\n      dup1\n        /* \"#utility.yul\":3491:3538   */\n    tag_84:\n        /* \"#utility.yul\":3587:3589   */\n      0x1f\n        /* \"#utility.yul\":3582:3585   */\n      dup6\n        /* \"#utility.yul\":3578:3590   */\n      add\n        /* \"#utility.yul\":3575:3576   */\n      0x05\n        /* \"#utility.yul\":3571:3591   */\n      shr\n        /* \"#utility.yul\":3565:3569   */\n      dup3\n        /* \"#utility.yul\":3561:3592   */\n      add\n        /* \"#utility.yul\":3551:3592   */\n      swap2\n      pop\n        /* \"#utility.yul\":3642:3724   */\n    tag_85:\n        /* \"#utility.yul\":3660:3662   */\n      dup2\n        /* \"#utility.yul\":3653:3658   */\n      dup2\n        /* \"#utility.yul\":3650:3663   */\n      lt\n        /* \"#utility.yul\":3642:3724   */\n      iszero\n      tag_87\n      jumpi\n        /* \"#utility.yul\":3705:3722   */\n      dup3\n      dup2\n      sstore\n        /* \"#utility.yul\":3686:3687   */\n      0x01\n        /* \"#utility.yul\":3675:3688   */\n      add\n        /* \"#utility.yul\":3642:3724   */\n      jump(tag_85)\n    tag_87:\n        /* \"#utility.yul\":3646:3649   */\n      pop\n      pop\n      pop\n        /* \"#utility.yul\":3288:3734   */\n    tag_83:\n        /* \"#utility.yul\":3197:3740   */\n      pop\n      pop\n      pop\n      jump\t// out\n        /* \"#utility.yul\":3916:5261   */\n    tag_43:\n        /* \"#utility.yul\":4042:4045   */\n      dup2\n        /* \"#utility.yul\":4036:4046   */\n      mload\n        /* \"#utility.yul\":4069:4087   */\n      0xffffffffffffffff\n        /* \"#utility.yul\":4061:4067   */\n      dup2\n        /* \"#utility.yul\":4058:4088   */\n      gt\n        /* \"#utility.yul\":4055:4111   */\n      iszero\n      tag_91\n      jumpi\n        /* \"#utility.yul\":4091:4109   */\n      tag_91\n      tag_47\n      jump\t// in\n    tag_91:\n        /* \"#utility.yul\":4120:4217   */\n      tag_92\n        /* \"#utility.yul\":4210:4216   */\n      dup2\n        /* \"#utility.yul\":4170:4208   */\n      tag_93\n        /* \"#utility.yul\":4202:4206   */\n      dup5\n        /* \"#utility.yul\":4196:4207   */\n      sload\n        /* \"#utility.yul\":4170:4208   */\n      tag_34\n      jump\t// in\n    tag_93:\n        /* \"#utility.yul\":4164:4168   */\n      dup5\n        /* \"#utility.yul\":4120:4217   */\n      tag_50\n      jump\t// in\n    tag_92:\n        /* \"#utility.yul\":4272:4276   */\n      0x20\n      dup1\n        /* \"#utility.yul\":4329:4331   */\n      0x1f\n        /* \"#utility.yul\":4318:4332   */\n      dup4\n      gt\n        /* \"#utility.yul\":4346:4347   */\n      0x01\n        /* \"#utility.yul\":4341:5004   */\n      dup2\n      eq\n      tag_95\n      jumpi\n        /* \"#utility.yul\":5048:5049   */\n      0x00\n        /* \"#utility.yul\":5065:5071   */\n      dup5\n        /* \"#utility.yul\":5062:5151   */\n      iszero\n      tag_96\n      jumpi\n      pop\n        /* \"#utility.yul\":5117:5136   */\n      dup6\n      dup4\n      add\n        /* \"#utility.yul\":5111:5137   */\n      mload\n        /* \"#utility.yul\":5062:5151   */\n    tag_96:\n      not(0x00)\n        /* \"#utility.yul\":3873:3874   */\n      0x03\n        /* \"#utility.yul\":3869:3880   */\n      dup7\n      swap1\n      shl\n        /* \"#utility.yul\":3865:3889   */\n      shr\n        /* \"#utility.yul\":3861:3890   */\n      not\n        /* \"#utility.yul\":3851:3891   */\n      and\n        /* \"#utility.yul\":3897:3898   */\n      0x01\n        /* \"#utility.yul\":3893:3904   */\n      dup6\n      swap1\n      shl\n        /* \"#utility.yul\":3848:3905   */\n      or\n        /* \"#utility.yul\":5164:5245   */\n      dup6\n      sstore\n        /* \"#utility.yul\":4311:5255   */\n      jump(tag_87)\n        /* \"#utility.yul\":4341:5004   */\n    tag_95:\n        /* \"#utility.yul\":3144:3145   */\n      0x00\n        /* \"#utility.yul\":3137:3151   */\n      dup6\n      dup2\n      mstore\n        /* \"#utility.yul\":3181:3185   */\n      0x20\n        /* \"#utility.yul\":3168:3186   */\n      dup2\n      keccak256\n      not(0x1f)\n        /* \"#utility.yul\":4377:4397   */\n      dup7\n      and\n      swap2\n        /* \"#utility.yul\":4495:4731   */\n    tag_99:\n        /* \"#utility.yul\":4509:4516   */\n      dup3\n        /* \"#utility.yul\":4506:4507   */\n      dup2\n        /* \"#utility.yul\":4503:4517   */\n      lt\n        /* \"#utility.yul\":4495:4731   */\n      iszero\n      tag_101\n      jumpi\n        /* \"#utility.yul\":4598:4617   */\n      dup9\n      dup7\n      add\n        /* \"#utility.yul\":4592:4618   */\n      mload\n        /* \"#utility.yul\":4577:4619   */\n      dup3\n      sstore\n        /* \"#utility.yul\":4690:4717   */\n      swap5\n      dup5\n      add\n      swap5\n        /* \"#utility.yul\":4658:4659   */\n      0x01\n        /* \"#utility.yul\":4646:4660   */\n      swap1\n      swap2\n      add\n      swap1\n        /* \"#utility.yul\":4525:4544   */\n      dup5\n      add\n        /* \"#utility.yul\":4495:4731   */\n      jump(tag_99)\n    tag_101:\n        /* \"#utility.yul\":4499:4502   */\n      pop\n        /* \"#utility.yul\":4759:4765   */\n      dup6\n        /* \"#utility.yul\":4750:4757   */\n      dup3\n        /* \"#utility.yul\":4747:4766   */\n      lt\n        /* \"#utility.yul\":4744:4945   */\n      iszero\n      tag_102\n      jumpi\n        /* \"#utility.yul\":4820:4839   */\n      dup8\n      dup6\n      add\n        /* \"#utility.yul\":4814:4840   */\n      mload\n      not(0x00)\n        /* \"#utility.yul\":4903:4904   */\n      0x03\n        /* \"#utility.yul\":4899:4913   */\n      dup9\n      swap1\n      shl\n        /* \"#utility.yul\":4915:4918   */\n      0xf8\n        /* \"#utility.yul\":4895:4919   */\n      and\n        /* \"#utility.yul\":4891:4928   */\n      shr\n        /* \"#utility.yul\":4887:4929   */\n      not\n        /* \"#utility.yul\":4872:4930   */\n      and\n        /* \"#utility.yul\":4857:4931   */\n      dup2\n      sstore\n        /* \"#utility.yul\":4744:4945   */\n    tag_102:\n      pop\n      pop\n      pop\n      pop\n      pop\n        /* \"#utility.yul\":4991:4992   */\n      0x01\n        /* \"#utility.yul\":4975:4989   */\n      swap1\n      dup2\n      shl\n        /* \"#utility.yul\":4971:4993   */\n      add\n        /* \"#utility.yul\":4958:4994   */\n      swap1\n      sstore\n      pop\n        /* \"#utility.yul\":3916:5261   */\n      jump\t// out\n        /* \"#utility.yul\":5266:5555   */\n    tag_45:\n        /* \"#utility.yul\":5397:5400   */\n      0x00\n        /* \"#utility.yul\":5435:5441   */\n      dup3\n        /* \"#utility.yul\":5429:5442   */\n      mload\n        /* \"#utility.yul\":5451:5517   */\n      tag_104\n        /* \"#utility.yul\":5510:5516   */\n      dup2\n        /* \"#utility.yul\":5505:5508   */\n      dup5\n        /* \"#utility.yul\":5498:5502   */\n      0x20\n        /* \"#utility.yul\":5490:5496   */\n      dup8\n        /* \"#utility.yul\":5486:5503   */\n      add\n        /* \"#utility.yul\":5451:5517   */\n      tag_46\n      jump\t// in\n    tag_104:\n        /* \"#utility.yul\":5533:5549   */\n      swap2\n      swap1\n      swap2\n      add\n      swap3\n        /* \"#utility.yul\":5266:5555   */\n      swap2\n      pop\n      pop\n      jump\t// out\n\n    auxdata: 0xa26469706673582212205095c777ea5c8b264e0722a757e3725481a591db30939570c1700a735feb6dae64736f6c63430008180033\n}\n",
				"bytecode": {
					"linkReferences": {},
					"object": "608060405234801561001057600080fd5b50610581806100206000396000f3fe608060405234801561001057600080fd5b50600436106100575760003560e01c80632e64cec11461005c5780632ebce631146100735780636057361d146100945780636f760f41146100a95780638bab8dd5146100bc575b600080fd5b6000545b6040519081526020015b60405180910390f35b610086610081366004610248565b6100e7565b60405161006a929190610285565b6100a76100a2366004610248565b600055565b005b6100a76100b7366004610362565b61019f565b6100606100ca3660046103a7565b805160208183018101805160028252928201919093012091525481565b600181815481106100f757600080fd5b6000918252602090912060029091020180546001820180549193509061011c906103e4565b80601f0160208091040260200160405190810160405280929190818152602001828054610148906103e4565b80156101955780601f1061016a57610100808354040283529160200191610195565b820191906000526020600020905b81548152906001019060200180831161017857829003601f168201915b5050505050905082565b6040805180820190915281815260208101838152600180548082018255600091909152825160029091027fb10e2d527612073b26eecdfd717e6a320cf44b4afac2b0732d9fcbe2b7fa0cf68101918255915190917fb10e2d527612073b26eecdfd717e6a320cf44b4afac2b0732d9fcbe2b7fa0cf70190610220908261046f565b50505080600283604051610234919061052f565b908152604051908190036020019020555050565b60006020828403121561025a57600080fd5b5035919050565b60005b8381101561027c578181015183820152602001610264565b50506000910152565b82815260406020820152600082518060408401526102aa816060850160208701610261565b601f01601f1916919091016060019392505050565b634e487b7160e01b600052604160045260246000fd5b600082601f8301126102e657600080fd5b813567ffffffffffffffff80821115610301576103016102bf565b604051601f8301601f19908116603f01168101908282118183101715610329576103296102bf565b8160405283815286602085880101111561034257600080fd5b836020870160208301376000602085830101528094505050505092915050565b6000806040838503121561037557600080fd5b823567ffffffffffffffff81111561038c57600080fd5b610398858286016102d5565b95602094909401359450505050565b6000602082840312156103b957600080fd5b813567ffffffffffffffff8111156103d057600080fd5b6103dc848285016102d5565b949350505050565b600181811c908216806103f857607f821691505b60208210810361041857634e487b7160e01b600052602260045260246000fd5b50919050565b601f82111561046a576000816000526020600020601f850160051c810160208610156104475750805b601f850160051c820191505b8181101561046657828155600101610453565b5050505b505050565b815167ffffffffffffffff811115610489576104896102bf565b61049d8161049784546103e4565b8461041e565b602080601f8311600181146104d257600084156104ba5750858301515b600019600386901b1c1916600185901b178555610466565b600085815260208120601f198616915b82811015610501578886015182559484019460019091019084016104e2565b508582101561051f5787850151600019600388901b60f8161c191681555b5050505050600190811b01905550565b60008251610541818460208701610261565b919091019291505056fea26469706673582212205095c777ea5c8b264e0722a757e3725481a591db30939570c1700a735feb6dae64736f6c63430008180033",
					"opcodes": "PUSH1 0x80 PUSH1 0x40 MSTORE CALLVALUE DUP1 ISZERO PUSH2 0x10 JUMPI PUSH1 0x0 DUP1 REVERT JUMPDEST POP PUSH2 0x581 DUP1 PUSH2 0x20 PUSH1 0x0 CODECOPY PUSH1 0x0 RETURN INVALID PUSH1 0x80 PUSH1 0x40 MSTORE CALLVALUE DUP1 ISZERO PUSH2 0x10 JUMPI PUSH1 0x0 DUP1 REVERT JUMPDEST POP PUSH1 0x4 CALLDATASIZE LT PUSH2 0x57 JUMPI PUSH1 0x0 CALLDATALOAD PUSH1 0xE0 SHR DUP1 PUSH4 0x2E64CEC1 EQ PUSH2 0x5C JUMPI DUP1 PUSH4 0x2EBCE631 EQ PUSH2 0x73 JUMPI DUP1 PUSH4 0x6057361D EQ PUSH2 0x94 JUMPI DUP1 PUSH4 0x6F760F41 EQ PUSH2 0xA9 JUMPI DUP1 PUSH4 0x8BAB8DD5 EQ PUSH2 0xBC JUMPI JUMPDEST PUSH1 0x0 DUP1 REVERT JUMPDEST PUSH1 0x0 SLOAD JUMPDEST PUSH1 0x40 MLOAD SWAP1 DUP2 MSTORE PUSH1 0x20 ADD JUMPDEST PUSH1 0x40 MLOAD DUP1 SWAP2 SUB SWAP1 RETURN JUMPDEST PUSH2 0x86 PUSH2 0x81 CALLDATASIZE PUSH1 0x4 PUSH2 0x248 JUMP JUMPDEST PUSH2 0xE7 JUMP JUMPDEST PUSH1 0x40 MLOAD PUSH2 0x6A SWAP3 SWAP2 SWAP1 PUSH2 0x285 JUMP JUMPDEST PUSH2 0xA7 PUSH2 0xA2 CALLDATASIZE PUSH1 0x4 PUSH2 0x248 JUMP JUMPDEST PUSH1 0x0 SSTORE JUMP JUMPDEST STOP JUMPDEST PUSH2 0xA7 PUSH2 0xB7 CALLDATASIZE PUSH1 0x4 PUSH2 0x362 JUMP JUMPDEST PUSH2 0x19F JUMP JUMPDEST PUSH2 0x60 PUSH2 0xCA CALLDATASIZE PUSH1 0x4 PUSH2 0x3A7 JUMP JUMPDEST DUP1 MLOAD PUSH1 0x20 DUP2 DUP4 ADD DUP2 ADD DUP1 MLOAD PUSH1 0x2 DUP3 MSTORE SWAP3 DUP3 ADD SWAP2 SWAP1 SWAP4 ADD KECCAK256 SWAP2 MSTORE SLOAD DUP2 JUMP JUMPDEST PUSH1 0x1 DUP2 DUP2 SLOAD DUP2 LT PUSH2 0xF7 JUMPI PUSH1 0x0 DUP1 REVERT JUMPDEST PUSH1 0x0 SWAP2 DUP3 MSTORE PUSH1 0x20 SWAP1 SWAP2 KECCAK256 PUSH1 0x2 SWAP1 SWAP2 MUL ADD DUP1 SLOAD PUSH1 0x1 DUP3 ADD DUP1 SLOAD SWAP2 SWAP4 POP SWAP1 PUSH2 0x11C SWAP1 PUSH2 0x3E4 JUMP JUMPDEST DUP1 PUSH1 0x1F ADD PUSH1 0x20 DUP1 SWAP2 DIV MUL PUSH1 0x20 ADD PUSH1 0x40 MLOAD SWAP1 DUP2 ADD PUSH1 0x40 MSTORE DUP1 SWAP3 SWAP2 SWAP1 DUP2 DUP2 MSTORE PUSH1 0x20 ADD DUP3 DUP1 SLOAD PUSH2 0x148 SWAP1 PUSH2 0x3E4 JUMP JUMPDEST DUP1 ISZERO PUSH2 0x195 JUMPI DUP1 PUSH1 0x1F LT PUSH2 0x16A JUMPI PUSH2 0x100 DUP1 DUP4 SLOAD DIV MUL DUP4 MSTORE SWAP2 PUSH1 0x20 ADD SWAP2 PUSH2 0x195 JUMP JUMPDEST DUP3 ADD SWAP2 SWAP1 PUSH1 0x0 MSTORE PUSH1 0x20 PUSH1 0x0 KECCAK256 SWAP1 JUMPDEST DUP2 SLOAD DUP2 MSTORE SWAP1 PUSH1 0x1 ADD SWAP1 PUSH1 0x20 ADD DUP1 DUP4 GT PUSH2 0x178 JUMPI DUP3 SWAP1 SUB PUSH1 0x1F AND DUP3 ADD SWAP2 JUMPDEST POP POP POP POP POP SWAP1 POP DUP3 JUMP JUMPDEST PUSH1 0x40 DUP1 MLOAD DUP1 DUP3 ADD SWAP1 SWAP2 MSTORE DUP2 DUP2 MSTORE PUSH1 0x20 DUP2 ADD DUP4 DUP2 MSTORE PUSH1 0x1 DUP1 SLOAD DUP1 DUP3 ADD DUP3 SSTORE PUSH1 0x0 SWAP2 SWAP1 SWAP2 MSTORE DUP3 MLOAD PUSH1 0x2 SWAP1 SWAP2 MUL PUSH32 0xB10E2D527612073B26EECDFD717E6A320CF44B4AFAC2B0732D9FCBE2B7FA0CF6 DUP2 ADD SWAP2 DUP3 SSTORE SWAP2 MLOAD SWAP1 SWAP2 PUSH32 0xB10E2D527612073B26EECDFD717E6A320CF44B4AFAC2B0732D9FCBE2B7FA0CF7 ADD SWAP1 PUSH2 0x220 SWAP1 DUP3 PUSH2 0x46F JUMP JUMPDEST POP POP POP DUP1 PUSH1 0x2 DUP4 PUSH1 0x40 MLOAD PUSH2 0x234 SWAP2 SWAP1 PUSH2 0x52F JUMP JUMPDEST SWAP1 DUP2 MSTORE PUSH1 0x40 MLOAD SWAP1 DUP2 SWAP1 SUB PUSH1 0x20 ADD SWAP1 KECCAK256 SSTORE POP POP JUMP JUMPDEST PUSH1 0x0 PUSH1 0x20 DUP3 DUP5 SUB SLT ISZERO PUSH2 0x25A JUMPI PUSH1 0x0 DUP1 REVERT JUMPDEST POP CALLDATALOAD SWAP2 SWAP1 POP JUMP JUMPDEST PUSH1 0x0 JUMPDEST DUP4 DUP2 LT ISZERO PUSH2 0x27C JUMPI DUP2 DUP2 ADD MLOAD DUP4 DUP3 ADD MSTORE PUSH1 0x20 ADD PUSH2 0x264 JUMP JUMPDEST POP POP PUSH1 0x0 SWAP2 ADD MSTORE JUMP JUMPDEST DUP3 DUP2 MSTORE PUSH1 0x40 PUSH1 0x20 DUP3 ADD MSTORE PUSH1 0x0 DUP3 MLOAD DUP1 PUSH1 0x40 DUP5 ADD MSTORE PUSH2 0x2AA DUP2 PUSH1 0x60 DUP6 ADD PUSH1 0x20 DUP8 ADD PUSH2 0x261 JUMP JUMPDEST PUSH1 0x1F ADD PUSH1 0x1F NOT AND SWAP2 SWAP1 SWAP2 ADD PUSH1 0x60 ADD SWAP4 SWAP3 POP POP POP JUMP JUMPDEST PUSH4 0x4E487B71 PUSH1 0xE0 SHL PUSH1 0x0 MSTORE PUSH1 0x41 PUSH1 0x4 MSTORE PUSH1 0x24 PUSH1 0x0 REVERT JUMPDEST PUSH1 0x0 DUP3 PUSH1 0x1F DUP4 ADD SLT PUSH2 0x2E6 JUMPI PUSH1 0x0 DUP1 REVERT JUMPDEST DUP2 CALLDATALOAD PUSH8 0xFFFFFFFFFFFFFFFF DUP1 DUP3 GT ISZERO PUSH2 0x301 JUMPI PUSH2 0x301 PUSH2 0x2BF JUMP JUMPDEST PUSH1 0x40 MLOAD PUSH1 0x1F DUP4 ADD PUSH1 0x1F NOT SWAP1 DUP2 AND PUSH1 0x3F ADD AND DUP2 ADD SWAP1 DUP3 DUP3 GT DUP2 DUP4 LT OR ISZERO PUSH2 0x329 JUMPI PUSH2 0x329 PUSH2 0x2BF JUMP JUMPDEST DUP2 PUSH1 0x40 MSTORE DUP4 DUP2 MSTORE DUP7 PUSH1 0x20 DUP6 DUP9 ADD ADD GT ISZERO PUSH2 0x342 JUMPI PUSH1 0x0 DUP1 REVERT JUMPDEST DUP4 PUSH1 0x20 DUP8 ADD PUSH1 0x20 DUP4 ADD CALLDATACOPY PUSH1 0x0 PUSH1 0x20 DUP6 DUP4 ADD ADD MSTORE DUP1 SWAP5 POP POP POP POP POP SWAP3 SWAP2 POP POP JUMP JUMPDEST PUSH1 0x0 DUP1 PUSH1 0x40 DUP4 DUP6 SUB SLT ISZERO PUSH2 0x375 JUMPI PUSH1 0x0 DUP1 REVERT JUMPDEST DUP3 CALLDATALOAD PUSH8 0xFFFFFFFFFFFFFFFF DUP2 GT ISZERO PUSH2 0x38C JUMPI PUSH1 0x0 DUP1 REVERT JUMPDEST PUSH2 0x398 DUP6 DUP3 DUP7 ADD PUSH2 0x2D5 JUMP JUMPDEST SWAP6 PUSH1 0x20 SWAP5 SWAP1 SWAP5 ADD CALLDATALOAD SWAP5 POP POP POP POP JUMP JUMPDEST PUSH1 0x0 PUSH1 0x20 DUP3 DUP5 SUB SLT ISZERO PUSH2 0x3B9 JUMPI PUSH1 0x0 DUP1 REVERT JUMPDEST DUP2 CALLDATALOAD PUSH8 0xFFFFFFFFFFFFFFFF DUP2 GT ISZERO PUSH2 0x3D0 JUMPI PUSH1 0x0 DUP1 REVERT JUMPDEST PUSH2 0x3DC DUP5 DUP3 DUP6 ADD PUSH2 0x2D5 JUMP JUMPDEST SWAP5 SWAP4 POP POP POP POP JUMP JUMPDEST PUSH1 0x1 DUP2 DUP2 SHR SWAP1 DUP3 AND DUP1 PUSH2 0x3F8 JUMPI PUSH1 0x7F DUP3 AND SWAP2 POP JUMPDEST PUSH1 0x20 DUP3 LT DUP2 SUB PUSH2 0x418 JUMPI PUSH4 0x4E487B71 PUSH1 0xE0 SHL PUSH1 0x0 MSTORE PUSH1 0x22 PUSH1 0x4 MSTORE PUSH1 0x24 PUSH1 0x0 REVERT JUMPDEST POP SWAP2 SWAP1 POP JUMP JUMPDEST PUSH1 0x1F DUP3 GT ISZERO PUSH2 0x46A JUMPI PUSH1 0x0 DUP2 PUSH1 0x0 MSTORE PUSH1 0x20 PUSH1 0x0 KECCAK256 PUSH1 0x1F DUP6 ADD PUSH1 0x5 SHR DUP2 ADD PUSH1 0x20 DUP7 LT ISZERO PUSH2 0x447 JUMPI POP DUP1 JUMPDEST PUSH1 0x1F DUP6 ADD PUSH1 0x5 SHR DUP3 ADD SWAP2 POP JUMPDEST DUP2 DUP2 LT ISZERO PUSH2 0x466 JUMPI DUP3 DUP2 SSTORE PUSH1 0x1 ADD PUSH2 0x453 JUMP JUMPDEST POP POP POP JUMPDEST POP POP POP JUMP JUMPDEST DUP2 MLOAD PUSH8 0xFFFFFFFFFFFFFFFF DUP2 GT ISZERO PUSH2 0x489 JUMPI PUSH2 0x489 PUSH2 0x2BF JUMP JUMPDEST PUSH2 0x49D DUP2 PUSH2 0x497 DUP5 SLOAD PUSH2 0x3E4 JUMP JUMPDEST DUP5 PUSH2 0x41E JUMP JUMPDEST PUSH1 0x20 DUP1 PUSH1 0x1F DUP4 GT PUSH1 0x1 DUP2 EQ PUSH2 0x4D2 JUMPI PUSH1 0x0 DUP5 ISZERO PUSH2 0x4BA JUMPI POP DUP6 DUP4 ADD MLOAD JUMPDEST PUSH1 0x0 NOT PUSH1 0x3 DUP7 SWAP1 SHL SHR NOT AND PUSH1 0x1 DUP6 SWAP1 SHL OR DUP6 SSTORE PUSH2 0x466 JUMP JUMPDEST PUSH1 0x0 DUP6 DUP2 MSTORE PUSH1 0x20 DUP2 KECCAK256 PUSH1 0x1F NOT DUP7 AND SWAP2 JUMPDEST DUP3 DUP2 LT ISZERO PUSH2 0x501 JUMPI DUP9 DUP7 ADD MLOAD DUP3 SSTORE SWAP5 DUP5 ADD SWAP5 PUSH1 0x1 SWAP1 SWAP2 ADD SWAP1 DUP5 ADD PUSH2 0x4E2 JUMP JUMPDEST POP DUP6 DUP3 LT ISZERO PUSH2 0x51F JUMPI DUP8 DUP6 ADD MLOAD PUSH1 0x0 NOT PUSH1 0x3 DUP9 SWAP1 SHL PUSH1 0xF8 AND SHR NOT AND DUP2 SSTORE JUMPDEST POP POP POP POP POP PUSH1 0x1 SWAP1 DUP2 SHL ADD SWAP1 SSTORE POP JUMP JUMPDEST PUSH1 0x0 DUP3 MLOAD PUSH2 0x541 DUP2 DUP5 PUSH1 0x20 DUP8 ADD PUSH2 0x261 JUMP JUMPDEST SWAP2 SWAP1 SWAP2 ADD SWAP3 SWAP2 POP POP JUMP INVALID LOG2 PUSH5 0x6970667358 0x22 SLT KECCAK256 POP SWAP6 0xC7 PUSH24 0xEA5C8B264E0722A757E3725481A591DB30939570C1700A73 PUSH0 0xEB PUSH14 0xAE64736F6C634300081800330000 "
				},
				"gasEstimates": {
					"creation": {
						"codeDepositCost": "281800",
						"executionCost": "324",
						"totalCost": "282124"
					},
					"external": {
						"addPerson(string,uint256)": "infinite",
						"listOfPeople(uint256)": "infinite",
						"nameToFavoriteNumber(string)": "infinite",
						"retrieve()": "2248",
						"store(uint256)": "22334"
					}
				},
				"methodIdentifiers": {
					"addPerson(string,uint256)": "6f760f41",
					"listOfPeople(uint256)": "2ebce631",
					"nameToFavoriteNumber(string)": "8bab8dd5",
					"retrieve()": "2e64cec1",
					"store(uint256)": "6057361d"
				}
			},
			"storageLayout": {
				"storage": [
					{
						"astId": 3,
						"contract": "Smart Contracts/SimpleStorage.sol:SimpleStorage",
						"label": "myFavoriteNumber",
						"offset": 0,
						"slot": "0",
						"type": "t_uint256"
					},
					{
						"astId": 12,
						"contract": "Smart Contracts/SimpleStorage.sol:SimpleStorage",
						"label": "listOfPeople",
						"offset": 0,
						"slot": "1",
						"type": "t_array(t_struct(Person)8_storage)dyn_storage"
					},
					{
						"astId": 16,
						"contract": "Smart Contracts/SimpleStorage.sol:SimpleStorage",
						"label": "nameToFavoriteNumber",
						"offset": 0,
						"slot": "2",
						"type": "t_mapping(t_string_memory_ptr,t_uint256)"
					}
				],
				"types": {
					"t_array(t_struct(Person)8_storage)dyn_storage": {
						"base": "t_struct(Person)8_storage",
						"encoding": "dynamic_array",
						"label": "struct SimpleStorage.Person[]",
						"numberOfBytes": "32"
					},
					"t_mapping(t_string_memory_ptr,t_uint256)": {
						"encoding": "mapping",
						"key": "t_string_memory_ptr",
						"label": "mapping(string => uint256)",
						"numberOfBytes": "32",
						"value": "t_uint256"
					},
					"t_string_memory_ptr": {
						"encoding": "bytes",
						"label": "string",
						"numberOfBytes": "32"
					},
					"t_string_storage": {
						"encoding": "bytes",
						"label": "string",
						"numberOfBytes": "32"
					},
					"t_struct(Person)8_storage": {
						"encoding": "inplace",
						"label": "struct SimpleStorage.Person",
						"members": [
							{
								"astId": 5,
								"contract": "Smart Contracts/SimpleStorage.sol:SimpleStorage",
								"label": "favoriteNumber",
								"offset": 0,
								"slot": "0",
								"type": "t_uint256"
							},
							{
								"astId": 7,
								"contract": "Smart Contracts/SimpleStorage.sol:SimpleStorage",
								"label": "name",
								"offset": 0,
								"slot": "1",
								"type": "t_string_storage"
							}
						],
						"numberOfBytes": "64"
					},
					"t_uint256": {
						"encoding": "inplace",
						"label": "uint256",
						"numberOfBytes": "32"
					}
				}
			},
			"userdoc": {
				"kind": "user",
				"methods": {},
				"version": 1
			}
		}
	}
}